{
  "address": "0xD28F3246f047Efd4059B24FA1fa587eD9fa3e77F",
  "abi": [
    {
      "inputs": [],
      "stateMutability": "nonpayable",
      "type": "constructor"
    },
    {
      "anonymous": false,
      "inputs": [
        {
          "indexed": true,
          "internalType": "address",
          "name": "owner",
          "type": "address"
        },
        {
          "indexed": true,
          "internalType": "address",
          "name": "approved",
          "type": "address"
        },
        {
          "indexed": true,
          "internalType": "uint256",
          "name": "tokenId",
          "type": "uint256"
        }
      ],
      "name": "Approval",
      "type": "event"
    },
    {
      "anonymous": false,
      "inputs": [
        {
          "indexed": true,
          "internalType": "address",
          "name": "owner",
          "type": "address"
        },
        {
          "indexed": true,
          "internalType": "address",
          "name": "operator",
          "type": "address"
        },
        {
          "indexed": false,
          "internalType": "bool",
          "name": "approved",
          "type": "bool"
        }
      ],
      "name": "ApprovalForAll",
      "type": "event"
    },
    {
      "anonymous": false,
      "inputs": [
        {
          "indexed": true,
          "internalType": "address",
          "name": "from",
          "type": "address"
        },
        {
          "indexed": true,
          "internalType": "address",
          "name": "to",
          "type": "address"
        },
        {
          "indexed": true,
          "internalType": "uint256",
          "name": "tokenId",
          "type": "uint256"
        }
      ],
      "name": "Transfer",
      "type": "event"
    },
    {
      "anonymous": false,
      "inputs": [
        {
          "indexed": true,
          "internalType": "uint256",
          "name": "tokenId",
          "type": "uint256"
        },
        {
          "indexed": true,
          "internalType": "address",
          "name": "user",
          "type": "address"
        },
        {
          "indexed": false,
          "internalType": "uint64",
          "name": "expires",
          "type": "uint64"
        }
      ],
      "name": "UpdateUser",
      "type": "event"
    },
    {
      "inputs": [
        {
          "internalType": "address",
          "name": "to",
          "type": "address"
        },
        {
          "internalType": "uint256",
          "name": "tokenId",
          "type": "uint256"
        }
      ],
      "name": "approve",
      "outputs": [],
      "stateMutability": "nonpayable",
      "type": "function"
    },
    {
      "inputs": [
        {
          "internalType": "address",
          "name": "owner",
          "type": "address"
        }
      ],
      "name": "balanceOf",
      "outputs": [
        {
          "internalType": "uint256",
          "name": "",
          "type": "uint256"
        }
      ],
      "stateMutability": "view",
      "type": "function"
    },
    {
      "inputs": [
        {
          "internalType": "uint256",
          "name": "tokenId",
          "type": "uint256"
        }
      ],
      "name": "getApproved",
      "outputs": [
        {
          "internalType": "address",
          "name": "",
          "type": "address"
        }
      ],
      "stateMutability": "view",
      "type": "function"
    },
    {
      "inputs": [
        {
          "internalType": "address",
          "name": "owner",
          "type": "address"
        },
        {
          "internalType": "address",
          "name": "operator",
          "type": "address"
        }
      ],
      "name": "isApprovedForAll",
      "outputs": [
        {
          "internalType": "bool",
          "name": "",
          "type": "bool"
        }
      ],
      "stateMutability": "view",
      "type": "function"
    },
    {
      "inputs": [],
      "name": "name",
      "outputs": [
        {
          "internalType": "string",
          "name": "",
          "type": "string"
        }
      ],
      "stateMutability": "view",
      "type": "function"
    },
    {
      "inputs": [],
      "name": "nftMint",
      "outputs": [
        {
          "internalType": "uint256",
          "name": "",
          "type": "uint256"
        }
      ],
      "stateMutability": "nonpayable",
      "type": "function"
    },
    {
      "inputs": [
        {
          "internalType": "uint256",
          "name": "tokenId",
          "type": "uint256"
        }
      ],
      "name": "ownerOf",
      "outputs": [
        {
          "internalType": "address",
          "name": "",
          "type": "address"
        }
      ],
      "stateMutability": "view",
      "type": "function"
    },
    {
      "inputs": [
        {
          "internalType": "address",
          "name": "from",
          "type": "address"
        },
        {
          "internalType": "address",
          "name": "to",
          "type": "address"
        },
        {
          "internalType": "uint256",
          "name": "tokenId",
          "type": "uint256"
        }
      ],
      "name": "safeTransferFrom",
      "outputs": [],
      "stateMutability": "nonpayable",
      "type": "function"
    },
    {
      "inputs": [
        {
          "internalType": "address",
          "name": "from",
          "type": "address"
        },
        {
          "internalType": "address",
          "name": "to",
          "type": "address"
        },
        {
          "internalType": "uint256",
          "name": "tokenId",
          "type": "uint256"
        },
        {
          "internalType": "bytes",
          "name": "data",
          "type": "bytes"
        }
      ],
      "name": "safeTransferFrom",
      "outputs": [],
      "stateMutability": "nonpayable",
      "type": "function"
    },
    {
      "inputs": [
        {
          "internalType": "address",
          "name": "operator",
          "type": "address"
        },
        {
          "internalType": "bool",
          "name": "approved",
          "type": "bool"
        }
      ],
      "name": "setApprovalForAll",
      "outputs": [],
      "stateMutability": "nonpayable",
      "type": "function"
    },
    {
      "inputs": [
        {
          "internalType": "uint256",
          "name": "tokenId",
          "type": "uint256"
        },
        {
          "internalType": "address",
          "name": "user",
          "type": "address"
        },
        {
          "internalType": "uint64",
          "name": "expires",
          "type": "uint64"
        }
      ],
      "name": "setUser",
      "outputs": [],
      "stateMutability": "nonpayable",
      "type": "function"
    },
    {
      "inputs": [
        {
          "internalType": "bytes4",
          "name": "interfaceId",
          "type": "bytes4"
        }
      ],
      "name": "supportsInterface",
      "outputs": [
        {
          "internalType": "bool",
          "name": "",
          "type": "bool"
        }
      ],
      "stateMutability": "view",
      "type": "function"
    },
    {
      "inputs": [],
      "name": "symbol",
      "outputs": [
        {
          "internalType": "string",
          "name": "",
          "type": "string"
        }
      ],
      "stateMutability": "view",
      "type": "function"
    },
    {
      "inputs": [
        {
          "internalType": "uint256",
          "name": "tokenId",
          "type": "uint256"
        }
      ],
      "name": "tokenURI",
      "outputs": [
        {
          "internalType": "string",
          "name": "",
          "type": "string"
        }
      ],
      "stateMutability": "view",
      "type": "function"
    },
    {
      "inputs": [
        {
          "internalType": "address",
          "name": "from",
          "type": "address"
        },
        {
          "internalType": "address",
          "name": "to",
          "type": "address"
        },
        {
          "internalType": "uint256",
          "name": "tokenId",
          "type": "uint256"
        }
      ],
      "name": "transferFrom",
      "outputs": [],
      "stateMutability": "nonpayable",
      "type": "function"
    },
    {
      "inputs": [
        {
          "internalType": "uint256",
          "name": "tokenId",
          "type": "uint256"
        }
      ],
      "name": "userExpires",
      "outputs": [
        {
          "internalType": "uint256",
          "name": "",
          "type": "uint256"
        }
      ],
      "stateMutability": "view",
      "type": "function"
    },
    {
      "inputs": [
        {
          "internalType": "uint256",
          "name": "tokenId",
          "type": "uint256"
        }
      ],
      "name": "userOf",
      "outputs": [
        {
          "internalType": "address",
          "name": "",
          "type": "address"
        }
      ],
      "stateMutability": "view",
      "type": "function"
    }
  ],
  "transactionHash": "0x8826d5cb83e5b407666cfa123b0e7bfd056075e8d7ef4681cf1845cc4be079cc",
  "args": [],
  "numDeployments": 1,
  "solcInputHash": "de05512e8a8801f2c6d753bb1650f441",
  "bytecode": "0x60806040523480156200001157600080fd5b506040518060400160405280600f81526020017f5465737452656e7461626c654e465400000000000000000000000000000000008152506040518060400160405280600381526020017f54524e000000000000000000000000000000000000000000000000000000000081525081600090816200008f919062000324565b508060019081620000a1919062000324565b5050506200040b565b600081519050919050565b7f4e487b7100000000000000000000000000000000000000000000000000000000600052604160045260246000fd5b7f4e487b7100000000000000000000000000000000000000000000000000000000600052602260045260246000fd5b600060028204905060018216806200012c57607f821691505b602082108103620001425762000141620000e4565b5b50919050565b60008190508160005260206000209050919050565b60006020601f8301049050919050565b600082821b905092915050565b600060088302620001ac7fffffffffffffffffffffffffffffffffffffffffffffffffffffffffffffffff826200016d565b620001b886836200016d565b95508019841693508086168417925050509392505050565b6000819050919050565b6000819050919050565b600062000205620001ff620001f984620001d0565b620001da565b620001d0565b9050919050565b6000819050919050565b6200022183620001e4565b6200023962000230826200020c565b8484546200017a565b825550505050565b600090565b6200025062000241565b6200025d81848462000216565b505050565b5b8181101562000285576200027960008262000246565b60018101905062000263565b5050565b601f821115620002d4576200029e8162000148565b620002a9846200015d565b81016020851015620002b9578190505b620002d1620002c8856200015d565b83018262000262565b50505b505050565b600082821c905092915050565b6000620002f960001984600802620002d9565b1980831691505092915050565b6000620003148383620002e6565b9150826002028217905092915050565b6200032f82620000aa565b67ffffffffffffffff8111156200034b576200034a620000b5565b5b62000357825462000113565b6200036482828562000289565b600060209050601f8311600181146200039c576000841562000387578287015190505b62000393858262000306565b86555062000403565b601f198416620003ac8662000148565b60005b82811015620003d657848901518255600182019150602085019450602081019050620003af565b86831015620003f65784890151620003f2601f891682620002e6565b8355505b6001600288020188555050505b505050505050565b612afd806200041b6000396000f3fe608060405234801561001057600080fd5b506004361061010b5760003560e01c8063719414b4116100a2578063b88d4fde11610071578063b88d4fde146102ca578063c2f1f14a146102e6578063c87b56dd14610316578063e030565e14610346578063e985e9c5146103625761010b565b8063719414b4146102425780638fc88c481461026057806395d89b4114610290578063a22cb465146102ae5761010b565b806323b872dd116100de57806323b872dd146101aa57806342842e0e146101c65780636352211e146101e257806370a08231146102125761010b565b806301ffc9a71461011057806306fdde0314610140578063081812fc1461015e578063095ea7b31461018e575b600080fd5b61012a60048036038101906101259190611bd2565b610392565b6040516101379190611c1a565b60405180910390f35b61014861040c565b6040516101559190611cc5565b60405180910390f35b61017860048036038101906101739190611d1d565b61049e565b6040516101859190611d8b565b60405180910390f35b6101a860048036038101906101a39190611dd2565b6104e4565b005b6101c460048036038101906101bf9190611e12565b6105fb565b005b6101e060048036038101906101db9190611e12565b61065b565b005b6101fc60048036038101906101f79190611d1d565b61067b565b6040516102099190611d8b565b60405180910390f35b61022c60048036038101906102279190611e65565b610701565b6040516102399190611ea1565b60405180910390f35b61024a6107b8565b6040516102579190611ea1565b60405180910390f35b61027a60048036038101906102759190611d1d565b6107e3565b6040516102879190611ea1565b60405180910390f35b610298610821565b6040516102a59190611cc5565b60405180910390f35b6102c860048036038101906102c39190611ee8565b6108b3565b005b6102e460048036038101906102df919061205d565b6108c9565b005b61030060048036038101906102fb9190611d1d565b61092b565b60405161030d9190611d8b565b60405180910390f35b610330600480360381019061032b9190611d1d565b6109b0565b60405161033d9190611cc5565b60405180910390f35b610360600480360381019061035b9190612120565b610a18565b005b61037c60048036038101906103779190612173565b610bfe565b6040516103899190611c1a565b60405180910390f35b60007fad092b5c000000000000000000000000000000000000000000000000000000007bffffffffffffffffffffffffffffffffffffffffffffffffffffffff1916827bffffffffffffffffffffffffffffffffffffffffffffffffffffffff19161480610405575061040482610c92565b5b9050919050565b60606000805461041b906121e2565b80601f0160208091040260200160405190810160405280929190818152602001828054610447906121e2565b80156104945780601f1061046957610100808354040283529160200191610494565b820191906000526020600020905b81548152906001019060200180831161047757829003601f168201915b5050505050905090565b60006104a982610d74565b6004600083815260200190815260200160002060009054906101000a900473ffffffffffffffffffffffffffffffffffffffff169050919050565b60006104ef8261067b565b90508073ffffffffffffffffffffffffffffffffffffffff168373ffffffffffffffffffffffffffffffffffffffff160361055f576040517f08c379a000000000000000000000000000000000000000000000000000000000815260040161055690612285565b60405180910390fd5b8073ffffffffffffffffffffffffffffffffffffffff1661057e610dbf565b73ffffffffffffffffffffffffffffffffffffffff1614806105ad57506105ac816105a7610dbf565b610bfe565b5b6105ec576040517f08c379a00000000000000000000000000000000000000000000000000000000081526004016105e390612317565b60405180910390fd5b6105f68383610dc7565b505050565b61060c610606610dbf565b82610e80565b61064b576040517f08c379a0000000000000000000000000000000000000000000000000000000008152600401610642906123a9565b60405180910390fd5b610656838383610f15565b505050565b610676838383604051806020016040528060008152506108c9565b505050565b6000806106878361120e565b9050600073ffffffffffffffffffffffffffffffffffffffff168173ffffffffffffffffffffffffffffffffffffffff16036106f8576040517f08c379a00000000000000000000000000000000000000000000000000000000081526004016106ef90612415565b60405180910390fd5b80915050919050565b60008073ffffffffffffffffffffffffffffffffffffffff168273ffffffffffffffffffffffffffffffffffffffff1603610771576040517f08c379a0000000000000000000000000000000000000000000000000000000008152600401610768906124a7565b60405180910390fd5b600360008373ffffffffffffffffffffffffffffffffffffffff1673ffffffffffffffffffffffffffffffffffffffff168152602001908152602001600020549050919050565b60006107c4600661124b565b60006107d06006611261565b90506107dc338261126f565b8091505090565b60006007600083815260200190815260200160002060000160149054906101000a900467ffffffffffffffff1667ffffffffffffffff169050919050565b606060018054610830906121e2565b80601f016020809104026020016040519081016040528092919081815260200182805461085c906121e2565b80156108a95780601f1061087e576101008083540402835291602001916108a9565b820191906000526020600020905b81548152906001019060200180831161088c57829003601f168201915b5050505050905090565b6108c56108be610dbf565b838361128d565b5050565b6108da6108d4610dbf565b83610e80565b610919576040517f08c379a0000000000000000000000000000000000000000000000000000000008152600401610910906123a9565b60405180910390fd5b610925848484846113f9565b50505050565b6000426007600084815260200190815260200160002060000160149054906101000a900467ffffffffffffffff1667ffffffffffffffff16106109a6576007600083815260200190815260200160002060000160009054906101000a900473ffffffffffffffffffffffffffffffffffffffff1690506109ab565b600090505b919050565b60606109bb82610d74565b60006109c5611455565b905060008151116109e55760405180602001604052806000815250610a10565b806109ef8461146c565b604051602001610a00929190612503565b6040516020818303038152906040525b915050919050565b610a223384610e80565b610a61576040517f08c379a0000000000000000000000000000000000000000000000000000000008152600401610a5890612599565b60405180910390fd5b600073ffffffffffffffffffffffffffffffffffffffff16610a828461092b565b73ffffffffffffffffffffffffffffffffffffffff1614610ad8576040517f08c379a0000000000000000000000000000000000000000000000000000000008152600401610acf90612605565b60405180910390fd5b428167ffffffffffffffff1611610b24576040517f08c379a0000000000000000000000000000000000000000000000000000000008152600401610b1b90612671565b60405180910390fd5b6000600760008581526020019081526020016000209050828160000160006101000a81548173ffffffffffffffffffffffffffffffffffffffff021916908373ffffffffffffffffffffffffffffffffffffffff160217905550818160000160146101000a81548167ffffffffffffffff021916908367ffffffffffffffff1602179055508273ffffffffffffffffffffffffffffffffffffffff16847f4e06b4e7000e659094299b3533b47b6aa8ad048e95e872d23d1f4ee55af89cfe84604051610bf091906126a0565b60405180910390a350505050565b6000600560008473ffffffffffffffffffffffffffffffffffffffff1673ffffffffffffffffffffffffffffffffffffffff16815260200190815260200160002060008373ffffffffffffffffffffffffffffffffffffffff1673ffffffffffffffffffffffffffffffffffffffff16815260200190815260200160002060009054906101000a900460ff16905092915050565b60007f80ac58cd000000000000000000000000000000000000000000000000000000007bffffffffffffffffffffffffffffffffffffffffffffffffffffffff1916827bffffffffffffffffffffffffffffffffffffffffffffffffffffffff19161480610d5d57507f5b5e139f000000000000000000000000000000000000000000000000000000007bffffffffffffffffffffffffffffffffffffffffffffffffffffffff1916827bffffffffffffffffffffffffffffffffffffffffffffffffffffffff1916145b80610d6d5750610d6c8261153a565b5b9050919050565b610d7d816115a4565b610dbc576040517f08c379a0000000000000000000000000000000000000000000000000000000008152600401610db390612415565b60405180910390fd5b50565b600033905090565b816004600083815260200190815260200160002060006101000a81548173ffffffffffffffffffffffffffffffffffffffff021916908373ffffffffffffffffffffffffffffffffffffffff160217905550808273ffffffffffffffffffffffffffffffffffffffff16610e3a8361067b565b73ffffffffffffffffffffffffffffffffffffffff167f8c5be1e5ebec7d5bd14f71427d1e84f3dd0314c0f7b2291e5b200ac8c7c3b92560405160405180910390a45050565b600080610e8c8361067b565b90508073ffffffffffffffffffffffffffffffffffffffff168473ffffffffffffffffffffffffffffffffffffffff161480610ece5750610ecd8185610bfe565b5b80610f0c57508373ffffffffffffffffffffffffffffffffffffffff16610ef48461049e565b73ffffffffffffffffffffffffffffffffffffffff16145b91505092915050565b8273ffffffffffffffffffffffffffffffffffffffff16610f358261067b565b73ffffffffffffffffffffffffffffffffffffffff1614610f8b576040517f08c379a0000000000000000000000000000000000000000000000000000000008152600401610f829061272d565b60405180910390fd5b600073ffffffffffffffffffffffffffffffffffffffff168273ffffffffffffffffffffffffffffffffffffffff1603610ffa576040517f08c379a0000000000000000000000000000000000000000000000000000000008152600401610ff1906127bf565b60405180910390fd5b61100783838360016115e5565b8273ffffffffffffffffffffffffffffffffffffffff166110278261067b565b73ffffffffffffffffffffffffffffffffffffffff161461107d576040517f08c379a00000000000000000000000000000000000000000000000000000000081526004016110749061272d565b60405180910390fd5b6004600082815260200190815260200160002060006101000a81549073ffffffffffffffffffffffffffffffffffffffff02191690556001600360008573ffffffffffffffffffffffffffffffffffffffff1673ffffffffffffffffffffffffffffffffffffffff168152602001908152602001600020600082825403925050819055506001600360008473ffffffffffffffffffffffffffffffffffffffff1673ffffffffffffffffffffffffffffffffffffffff16815260200190815260200160002060008282540192505081905550816002600083815260200190815260200160002060006101000a81548173ffffffffffffffffffffffffffffffffffffffff021916908373ffffffffffffffffffffffffffffffffffffffff160217905550808273ffffffffffffffffffffffffffffffffffffffff168473ffffffffffffffffffffffffffffffffffffffff167fddf252ad1be2c89b69c2b068fc378daa952ba7f163c4a11628f55a4df523b3ef60405160405180910390a461120983838360016115eb565b505050565b60006002600083815260200190815260200160002060009054906101000a900473ffffffffffffffffffffffffffffffffffffffff169050919050565b6001816000016000828254019250508190555050565b600081600001549050919050565b6112898282604051806020016040528060008152506115f1565b5050565b8173ffffffffffffffffffffffffffffffffffffffff168373ffffffffffffffffffffffffffffffffffffffff16036112fb576040517f08c379a00000000000000000000000000000000000000000000000000000000081526004016112f29061282b565b60405180910390fd5b80600560008573ffffffffffffffffffffffffffffffffffffffff1673ffffffffffffffffffffffffffffffffffffffff16815260200190815260200160002060008473ffffffffffffffffffffffffffffffffffffffff1673ffffffffffffffffffffffffffffffffffffffff16815260200190815260200160002060006101000a81548160ff0219169083151502179055508173ffffffffffffffffffffffffffffffffffffffff168373ffffffffffffffffffffffffffffffffffffffff167f17307eab39ab6107e8899845ad3d59bd9653f200f220920489ca2b5937696c31836040516113ec9190611c1a565b60405180910390a3505050565b611404848484610f15565b6114108484848461164c565b61144f576040517f08c379a0000000000000000000000000000000000000000000000000000000008152600401611446906128bd565b60405180910390fd5b50505050565b606060405180602001604052806000815250905090565b60606000600161147b846117d3565b01905060008167ffffffffffffffff81111561149a57611499611f32565b5b6040519080825280601f01601f1916602001820160405280156114cc5781602001600182028036833780820191505090505b509050600082602001820190505b60011561152f578080600190039150507f3031323334353637383961626364656600000000000000000000000000000000600a86061a8153600a8581611523576115226128dd565b5b049450600085036114da575b819350505050919050565b60007f01ffc9a7000000000000000000000000000000000000000000000000000000007bffffffffffffffffffffffffffffffffffffffffffffffffffffffff1916827bffffffffffffffffffffffffffffffffffffffffffffffffffffffff1916149050919050565b60008073ffffffffffffffffffffffffffffffffffffffff166115c68361120e565b73ffffffffffffffffffffffffffffffffffffffff1614159050919050565b50505050565b50505050565b6115fb8383611926565b611608600084848461164c565b611647576040517f08c379a000000000000000000000000000000000000000000000000000000000815260040161163e906128bd565b60405180910390fd5b505050565b600061166d8473ffffffffffffffffffffffffffffffffffffffff16611b43565b156117c6578373ffffffffffffffffffffffffffffffffffffffff1663150b7a02611696610dbf565b8786866040518563ffffffff1660e01b81526004016116b89493929190612961565b6020604051808303816000875af19250505080156116f457506040513d601f19601f820116820180604052508101906116f191906129c2565b60015b611776573d8060008114611724576040519150601f19603f3d011682016040523d82523d6000602084013e611729565b606091505b50600081510361176e576040517f08c379a0000000000000000000000000000000000000000000000000000000008152600401611765906128bd565b60405180910390fd5b805181602001fd5b63150b7a0260e01b7bffffffffffffffffffffffffffffffffffffffffffffffffffffffff1916817bffffffffffffffffffffffffffffffffffffffffffffffffffffffff1916149150506117cb565b600190505b949350505050565b600080600090507a184f03e93ff9f4daa797ed6e38ed64bf6a1f0100000000000000008310611831577a184f03e93ff9f4daa797ed6e38ed64bf6a1f0100000000000000008381611827576118266128dd565b5b0492506040810190505b6d04ee2d6d415b85acef8100000000831061186e576d04ee2d6d415b85acef81000000008381611864576118636128dd565b5b0492506020810190505b662386f26fc10000831061189d57662386f26fc100008381611893576118926128dd565b5b0492506010810190505b6305f5e10083106118c6576305f5e10083816118bc576118bb6128dd565b5b0492506008810190505b61271083106118eb5761271083816118e1576118e06128dd565b5b0492506004810190505b6064831061190e5760648381611904576119036128dd565b5b0492506002810190505b600a831061191d576001810190505b80915050919050565b600073ffffffffffffffffffffffffffffffffffffffff168273ffffffffffffffffffffffffffffffffffffffff1603611995576040517f08c379a000000000000000000000000000000000000000000000000000000000815260040161198c90612a3b565b60405180910390fd5b61199e816115a4565b156119de576040517f08c379a00000000000000000000000000000000000000000000000000000000081526004016119d590612aa7565b60405180910390fd5b6119ec6000838360016115e5565b6119f5816115a4565b15611a35576040517f08c379a0000000000000000000000000000000000000000000000000000000008152600401611a2c90612aa7565b60405180910390fd5b6001600360008473ffffffffffffffffffffffffffffffffffffffff1673ffffffffffffffffffffffffffffffffffffffff16815260200190815260200160002060008282540192505081905550816002600083815260200190815260200160002060006101000a81548173ffffffffffffffffffffffffffffffffffffffff021916908373ffffffffffffffffffffffffffffffffffffffff160217905550808273ffffffffffffffffffffffffffffffffffffffff16600073ffffffffffffffffffffffffffffffffffffffff167fddf252ad1be2c89b69c2b068fc378daa952ba7f163c4a11628f55a4df523b3ef60405160405180910390a4611b3f6000838360016115eb565b5050565b6000808273ffffffffffffffffffffffffffffffffffffffff163b119050919050565b6000604051905090565b600080fd5b600080fd5b60007fffffffff0000000000000000000000000000000000000000000000000000000082169050919050565b611baf81611b7a565b8114611bba57600080fd5b50565b600081359050611bcc81611ba6565b92915050565b600060208284031215611be857611be7611b70565b5b6000611bf684828501611bbd565b91505092915050565b60008115159050919050565b611c1481611bff565b82525050565b6000602082019050611c2f6000830184611c0b565b92915050565b600081519050919050565b600082825260208201905092915050565b60005b83811015611c6f578082015181840152602081019050611c54565b60008484015250505050565b6000601f19601f8301169050919050565b6000611c9782611c35565b611ca18185611c40565b9350611cb1818560208601611c51565b611cba81611c7b565b840191505092915050565b60006020820190508181036000830152611cdf8184611c8c565b905092915050565b6000819050919050565b611cfa81611ce7565b8114611d0557600080fd5b50565b600081359050611d1781611cf1565b92915050565b600060208284031215611d3357611d32611b70565b5b6000611d4184828501611d08565b91505092915050565b600073ffffffffffffffffffffffffffffffffffffffff82169050919050565b6000611d7582611d4a565b9050919050565b611d8581611d6a565b82525050565b6000602082019050611da06000830184611d7c565b92915050565b611daf81611d6a565b8114611dba57600080fd5b50565b600081359050611dcc81611da6565b92915050565b60008060408385031215611de957611de8611b70565b5b6000611df785828601611dbd565b9250506020611e0885828601611d08565b9150509250929050565b600080600060608486031215611e2b57611e2a611b70565b5b6000611e3986828701611dbd565b9350506020611e4a86828701611dbd565b9250506040611e5b86828701611d08565b9150509250925092565b600060208284031215611e7b57611e7a611b70565b5b6000611e8984828501611dbd565b91505092915050565b611e9b81611ce7565b82525050565b6000602082019050611eb66000830184611e92565b92915050565b611ec581611bff565b8114611ed057600080fd5b50565b600081359050611ee281611ebc565b92915050565b60008060408385031215611eff57611efe611b70565b5b6000611f0d85828601611dbd565b9250506020611f1e85828601611ed3565b9150509250929050565b600080fd5b600080fd5b7f4e487b7100000000000000000000000000000000000000000000000000000000600052604160045260246000fd5b611f6a82611c7b565b810181811067ffffffffffffffff82111715611f8957611f88611f32565b5b80604052505050565b6000611f9c611b66565b9050611fa88282611f61565b919050565b600067ffffffffffffffff821115611fc857611fc7611f32565b5b611fd182611c7b565b9050602081019050919050565b82818337600083830152505050565b6000612000611ffb84611fad565b611f92565b90508281526020810184848401111561201c5761201b611f2d565b5b612027848285611fde565b509392505050565b600082601f83011261204457612043611f28565b5b8135612054848260208601611fed565b91505092915050565b6000806000806080858703121561207757612076611b70565b5b600061208587828801611dbd565b945050602061209687828801611dbd565b93505060406120a787828801611d08565b925050606085013567ffffffffffffffff8111156120c8576120c7611b75565b5b6120d48782880161202f565b91505092959194509250565b600067ffffffffffffffff82169050919050565b6120fd816120e0565b811461210857600080fd5b50565b60008135905061211a816120f4565b92915050565b60008060006060848603121561213957612138611b70565b5b600061214786828701611d08565b935050602061215886828701611dbd565b92505060406121698682870161210b565b9150509250925092565b6000806040838503121561218a57612189611b70565b5b600061219885828601611dbd565b92505060206121a985828601611dbd565b9150509250929050565b7f4e487b7100000000000000000000000000000000000000000000000000000000600052602260045260246000fd5b600060028204905060018216806121fa57607f821691505b60208210810361220d5761220c6121b3565b5b50919050565b7f4552433732313a20617070726f76616c20746f2063757272656e74206f776e6560008201527f7200000000000000000000000000000000000000000000000000000000000000602082015250565b600061226f602183611c40565b915061227a82612213565b604082019050919050565b6000602082019050818103600083015261229e81612262565b9050919050565b7f4552433732313a20617070726f76652063616c6c6572206973206e6f7420746f60008201527f6b656e206f776e6572206f7220617070726f76656420666f7220616c6c000000602082015250565b6000612301603d83611c40565b915061230c826122a5565b604082019050919050565b60006020820190508181036000830152612330816122f4565b9050919050565b7f4552433732313a2063616c6c6572206973206e6f7420746f6b656e206f776e6560008201527f72206f7220617070726f76656400000000000000000000000000000000000000602082015250565b6000612393602d83611c40565b915061239e82612337565b604082019050919050565b600060208201905081810360008301526123c281612386565b9050919050565b7f4552433732313a20696e76616c696420746f6b656e2049440000000000000000600082015250565b60006123ff601883611c40565b915061240a826123c9565b602082019050919050565b6000602082019050818103600083015261242e816123f2565b9050919050565b7f4552433732313a2061646472657373207a65726f206973206e6f74206120766160008201527f6c6964206f776e65720000000000000000000000000000000000000000000000602082015250565b6000612491602983611c40565b915061249c82612435565b604082019050919050565b600060208201905081810360008301526124c081612484565b9050919050565b600081905092915050565b60006124dd82611c35565b6124e781856124c7565b93506124f7818560208601611c51565b80840191505092915050565b600061250f82856124d2565b915061251b82846124d2565b91508190509392505050565b7f4552433732313a207472616e736665722063616c6c6572206973206e6f74206f60008201527f776e6572206e6f7220617070726f766564000000000000000000000000000000602082015250565b6000612583603183611c40565b915061258e82612527565b604082019050919050565b600060208201905081810360008301526125b281612576565b9050919050565b7f5573657220616c72656164792061737369676e65640000000000000000000000600082015250565b60006125ef601583611c40565b91506125fa826125b9565b602082019050919050565b6000602082019050818103600083015261261e816125e2565b9050919050565b7f657870697265732073686f756c6420626520696e206675747572650000000000600082015250565b600061265b601b83611c40565b915061266682612625565b602082019050919050565b6000602082019050818103600083015261268a8161264e565b9050919050565b61269a816120e0565b82525050565b60006020820190506126b56000830184612691565b92915050565b7f4552433732313a207472616e736665722066726f6d20696e636f72726563742060008201527f6f776e6572000000000000000000000000000000000000000000000000000000602082015250565b6000612717602583611c40565b9150612722826126bb565b604082019050919050565b600060208201905081810360008301526127468161270a565b9050919050565b7f4552433732313a207472616e7366657220746f20746865207a65726f2061646460008201527f7265737300000000000000000000000000000000000000000000000000000000602082015250565b60006127a9602483611c40565b91506127b48261274d565b604082019050919050565b600060208201905081810360008301526127d88161279c565b9050919050565b7f4552433732313a20617070726f766520746f2063616c6c657200000000000000600082015250565b6000612815601983611c40565b9150612820826127df565b602082019050919050565b6000602082019050818103600083015261284481612808565b9050919050565b7f4552433732313a207472616e7366657220746f206e6f6e20455243373231526560008201527f63656976657220696d706c656d656e7465720000000000000000000000000000602082015250565b60006128a7603283611c40565b91506128b28261284b565b604082019050919050565b600060208201905081810360008301526128d68161289a565b9050919050565b7f4e487b7100000000000000000000000000000000000000000000000000000000600052601260045260246000fd5b600081519050919050565b600082825260208201905092915050565b60006129338261290c565b61293d8185612917565b935061294d818560208601611c51565b61295681611c7b565b840191505092915050565b60006080820190506129766000830187611d7c565b6129836020830186611d7c565b6129906040830185611e92565b81810360608301526129a28184612928565b905095945050505050565b6000815190506129bc81611ba6565b92915050565b6000602082840312156129d8576129d7611b70565b5b60006129e6848285016129ad565b91505092915050565b7f4552433732313a206d696e7420746f20746865207a65726f2061646472657373600082015250565b6000612a25602083611c40565b9150612a30826129ef565b602082019050919050565b60006020820190508181036000830152612a5481612a18565b9050919050565b7f4552433732313a20746f6b656e20616c7265616479206d696e74656400000000600082015250565b6000612a91601c83611c40565b9150612a9c82612a5b565b602082019050919050565b60006020820190508181036000830152612ac081612a84565b905091905056fea26469706673582212209aec0e411cbfe3f26af4e9cd6167282c1ae569b9f711fc352e122166cbc1550e64736f6c63430008140033",
  "devdoc": {
    "events": {
      "Approval(address,address,uint256)": {
        "details": "Emitted when `owner` enables `approved` to manage the `tokenId` token."
      },
      "ApprovalForAll(address,address,bool)": {
        "details": "Emitted when `owner` enables or disables (`approved`) `operator` to manage all of its assets."
      },
      "Transfer(address,address,uint256)": {
        "details": "Emitted when `tokenId` token is transferred from `from` to `to`."
      }
    },
    "kind": "dev",
    "methods": {
      "approve(address,uint256)": {
        "details": "See {IERC721-approve}."
      },
      "balanceOf(address)": {
        "details": "See {IERC721-balanceOf}."
      },
      "getApproved(uint256)": {
        "details": "See {IERC721-getApproved}."
      },
      "isApprovedForAll(address,address)": {
        "details": "See {IERC721-isApprovedForAll}."
      },
      "name()": {
        "details": "See {IERC721Metadata-name}."
      },
      "ownerOf(uint256)": {
        "details": "See {IERC721-ownerOf}."
      },
      "safeTransferFrom(address,address,uint256)": {
        "details": "See {IERC721-safeTransferFrom}."
      },
      "safeTransferFrom(address,address,uint256,bytes)": {
        "details": "See {IERC721-safeTransferFrom}."
      },
      "setApprovalForAll(address,bool)": {
        "details": "See {IERC721-setApprovalForAll}."
      },
      "setUser(uint256,address,uint64)": {
        "details": "The zero address indicates there is no user Throws if `tokenId` is not valid NFT",
        "params": {
          "expires": "UNIX timestamp, The new user could use the NFT before expires",
          "user": "The new user of the NFT"
        }
      },
      "supportsInterface(bytes4)": {
        "details": "See {IERC165-supportsInterface}."
      },
      "symbol()": {
        "details": "See {IERC721Metadata-symbol}."
      },
      "tokenURI(uint256)": {
        "details": "See {IERC721Metadata-tokenURI}."
      },
      "transferFrom(address,address,uint256)": {
        "details": "See {IERC721-transferFrom}."
      },
      "userExpires(uint256)": {
        "details": "The zero value indicates that there is no user",
        "params": {
          "tokenId": "The NFT to get the user expires for"
        },
        "returns": {
          "_0": "The user expires for this NFT"
        }
      },
      "userOf(uint256)": {
        "details": "The zero address indicates that there is no user or the user is expired",
        "params": {
          "tokenId": "The NFT to get the user address for"
        },
        "returns": {
          "_0": "The user address for this NFT"
        }
      }
    },
    "version": 1
  },
  "userdoc": {
    "events": {
      "UpdateUser(uint256,address,uint64)": {
        "notice": "Emitted when the `user` of an NFT or the `expires` of the `user` is changed The zero address for user indicates that there is no user address"
      }
    },
    "kind": "user",
    "methods": {
      "setUser(uint256,address,uint64)": {
        "notice": "set the user and expires of a NFT"
      },
      "userExpires(uint256)": {
        "notice": "Get the user expires of an NFT"
      },
      "userOf(uint256)": {
        "notice": "Get the user address of an NFT"
      }
    },
    "version": 1
  },
  "storageLayout": {
    "storage": [
      {
        "astId": 1129,
        "contract": "contracts/ERC4907.sol:ERC4907",
        "label": "_name",
        "offset": 0,
        "slot": "0",
        "type": "t_string_storage"
      },
      {
        "astId": 1131,
        "contract": "contracts/ERC4907.sol:ERC4907",
        "label": "_symbol",
        "offset": 0,
        "slot": "1",
        "type": "t_string_storage"
      },
      {
        "astId": 1135,
        "contract": "contracts/ERC4907.sol:ERC4907",
        "label": "_owners",
        "offset": 0,
        "slot": "2",
        "type": "t_mapping(t_uint256,t_address)"
      },
      {
        "astId": 1139,
        "contract": "contracts/ERC4907.sol:ERC4907",
        "label": "_balances",
        "offset": 0,
        "slot": "3",
        "type": "t_mapping(t_address,t_uint256)"
      },
      {
        "astId": 1143,
        "contract": "contracts/ERC4907.sol:ERC4907",
        "label": "_tokenApprovals",
        "offset": 0,
        "slot": "4",
        "type": "t_mapping(t_uint256,t_address)"
      },
      {
        "astId": 1149,
        "contract": "contracts/ERC4907.sol:ERC4907",
        "label": "_operatorApprovals",
        "offset": 0,
        "slot": "5",
        "type": "t_mapping(t_address,t_mapping(t_address,t_bool))"
      },
      {
        "astId": 4874,
        "contract": "contracts/ERC4907.sol:ERC4907",
        "label": "_tokenIdCounter",
        "offset": 0,
        "slot": "6",
        "type": "t_struct(Counter)2576_storage"
      },
      {
        "astId": 4879,
        "contract": "contracts/ERC4907.sol:ERC4907",
        "label": "_users",
        "offset": 0,
        "slot": "7",
        "type": "t_mapping(t_uint256,t_struct(UserInfo)4867_storage)"
      }
    ],
    "types": {
      "t_address": {
        "encoding": "inplace",
        "label": "address",
        "numberOfBytes": "20"
      },
      "t_bool": {
        "encoding": "inplace",
        "label": "bool",
        "numberOfBytes": "1"
      },
      "t_mapping(t_address,t_bool)": {
        "encoding": "mapping",
        "key": "t_address",
        "label": "mapping(address => bool)",
        "numberOfBytes": "32",
        "value": "t_bool"
      },
      "t_mapping(t_address,t_mapping(t_address,t_bool))": {
        "encoding": "mapping",
        "key": "t_address",
        "label": "mapping(address => mapping(address => bool))",
        "numberOfBytes": "32",
        "value": "t_mapping(t_address,t_bool)"
      },
      "t_mapping(t_address,t_uint256)": {
        "encoding": "mapping",
        "key": "t_address",
        "label": "mapping(address => uint256)",
        "numberOfBytes": "32",
        "value": "t_uint256"
      },
      "t_mapping(t_uint256,t_address)": {
        "encoding": "mapping",
        "key": "t_uint256",
        "label": "mapping(uint256 => address)",
        "numberOfBytes": "32",
        "value": "t_address"
      },
      "t_mapping(t_uint256,t_struct(UserInfo)4867_storage)": {
        "encoding": "mapping",
        "key": "t_uint256",
        "label": "mapping(uint256 => struct ERC4907.UserInfo)",
        "numberOfBytes": "32",
        "value": "t_struct(UserInfo)4867_storage"
      },
      "t_string_storage": {
        "encoding": "bytes",
        "label": "string",
        "numberOfBytes": "32"
      },
      "t_struct(Counter)2576_storage": {
        "encoding": "inplace",
        "label": "struct Counters.Counter",
        "members": [
          {
            "astId": 2575,
            "contract": "contracts/ERC4907.sol:ERC4907",
            "label": "_value",
            "offset": 0,
            "slot": "0",
            "type": "t_uint256"
          }
        ],
        "numberOfBytes": "32"
      },
      "t_struct(UserInfo)4867_storage": {
        "encoding": "inplace",
        "label": "struct ERC4907.UserInfo",
        "members": [
          {
            "astId": 4864,
            "contract": "contracts/ERC4907.sol:ERC4907",
            "label": "user",
            "offset": 0,
            "slot": "0",
            "type": "t_address"
          },
          {
            "astId": 4866,
            "contract": "contracts/ERC4907.sol:ERC4907",
            "label": "expires",
            "offset": 20,
            "slot": "0",
            "type": "t_uint64"
          }
        ],
        "numberOfBytes": "32"
      },
      "t_uint256": {
        "encoding": "inplace",
        "label": "uint256",
        "numberOfBytes": "32"
      },
      "t_uint64": {
        "encoding": "inplace",
        "label": "uint64",
        "numberOfBytes": "8"
      }
    }
  }
}