{
  "address": "0xF357118EBd576f3C812c7875B1A1651a7f140E9C",
  "abi": [
    {
      "inputs": [],
      "stateMutability": "nonpayable",
      "type": "constructor"
    },
    {
      "inputs": [],
      "name": "InvalidShortString",
      "type": "error"
    },
    {
      "inputs": [
        {
          "internalType": "string",
          "name": "str",
          "type": "string"
        }
      ],
      "name": "StringTooLong",
      "type": "error"
    },
    {
      "anonymous": false,
      "inputs": [
        {
          "indexed": true,
          "internalType": "address",
          "name": "owner",
          "type": "address"
        },
        {
          "indexed": true,
          "internalType": "address",
          "name": "spender",
          "type": "address"
        },
        {
          "indexed": false,
          "internalType": "uint256",
          "name": "value",
          "type": "uint256"
        }
      ],
      "name": "Approval",
      "type": "event"
    },
    {
      "anonymous": false,
      "inputs": [],
      "name": "EIP712DomainChanged",
      "type": "event"
    },
    {
      "anonymous": false,
      "inputs": [
        {
          "indexed": true,
          "internalType": "address",
          "name": "previousOwner",
          "type": "address"
        },
        {
          "indexed": true,
          "internalType": "address",
          "name": "newOwner",
          "type": "address"
        }
      ],
      "name": "OwnershipTransferred",
      "type": "event"
    },
    {
      "anonymous": false,
      "inputs": [
        {
          "indexed": true,
          "internalType": "address",
          "name": "from",
          "type": "address"
        },
        {
          "indexed": true,
          "internalType": "address",
          "name": "to",
          "type": "address"
        },
        {
          "indexed": false,
          "internalType": "uint256",
          "name": "value",
          "type": "uint256"
        }
      ],
      "name": "Transfer",
      "type": "event"
    },
    {
      "inputs": [],
      "name": "DOMAIN_SEPARATOR",
      "outputs": [
        {
          "internalType": "bytes32",
          "name": "",
          "type": "bytes32"
        }
      ],
      "stateMutability": "view",
      "type": "function"
    },
    {
      "inputs": [
        {
          "internalType": "address",
          "name": "owner",
          "type": "address"
        },
        {
          "internalType": "address",
          "name": "spender",
          "type": "address"
        }
      ],
      "name": "allowance",
      "outputs": [
        {
          "internalType": "uint256",
          "name": "",
          "type": "uint256"
        }
      ],
      "stateMutability": "view",
      "type": "function"
    },
    {
      "inputs": [
        {
          "internalType": "address",
          "name": "spender",
          "type": "address"
        },
        {
          "internalType": "uint256",
          "name": "amount",
          "type": "uint256"
        }
      ],
      "name": "approve",
      "outputs": [
        {
          "internalType": "bool",
          "name": "",
          "type": "bool"
        }
      ],
      "stateMutability": "nonpayable",
      "type": "function"
    },
    {
      "inputs": [
        {
          "internalType": "address",
          "name": "account",
          "type": "address"
        }
      ],
      "name": "balanceOf",
      "outputs": [
        {
          "internalType": "uint256",
          "name": "",
          "type": "uint256"
        }
      ],
      "stateMutability": "view",
      "type": "function"
    },
    {
      "inputs": [],
      "name": "canRedeem",
      "outputs": [
        {
          "internalType": "bool",
          "name": "",
          "type": "bool"
        }
      ],
      "stateMutability": "view",
      "type": "function"
    },
    {
      "inputs": [],
      "name": "collection",
      "outputs": [
        {
          "internalType": "contract IERC721",
          "name": "",
          "type": "address"
        }
      ],
      "stateMutability": "view",
      "type": "function"
    },
    {
      "inputs": [],
      "name": "decimals",
      "outputs": [
        {
          "internalType": "uint8",
          "name": "",
          "type": "uint8"
        }
      ],
      "stateMutability": "view",
      "type": "function"
    },
    {
      "inputs": [
        {
          "internalType": "address",
          "name": "spender",
          "type": "address"
        },
        {
          "internalType": "uint256",
          "name": "subtractedValue",
          "type": "uint256"
        }
      ],
      "name": "decreaseAllowance",
      "outputs": [
        {
          "internalType": "bool",
          "name": "",
          "type": "bool"
        }
      ],
      "stateMutability": "nonpayable",
      "type": "function"
    },
    {
      "inputs": [],
      "name": "eip712Domain",
      "outputs": [
        {
          "internalType": "bytes1",
          "name": "fields",
          "type": "bytes1"
        },
        {
          "internalType": "string",
          "name": "name",
          "type": "string"
        },
        {
          "internalType": "string",
          "name": "version",
          "type": "string"
        },
        {
          "internalType": "uint256",
          "name": "chainId",
          "type": "uint256"
        },
        {
          "internalType": "address",
          "name": "verifyingContract",
          "type": "address"
        },
        {
          "internalType": "bytes32",
          "name": "salt",
          "type": "bytes32"
        },
        {
          "internalType": "uint256[]",
          "name": "extensions",
          "type": "uint256[]"
        }
      ],
      "stateMutability": "view",
      "type": "function"
    },
    {
      "inputs": [],
      "name": "forSale",
      "outputs": [
        {
          "internalType": "bool",
          "name": "",
          "type": "bool"
        }
      ],
      "stateMutability": "view",
      "type": "function"
    },
    {
      "inputs": [
        {
          "internalType": "address",
          "name": "account",
          "type": "address"
        }
      ],
      "name": "getBalance",
      "outputs": [
        {
          "internalType": "uint256",
          "name": "",
          "type": "uint256"
        }
      ],
      "stateMutability": "view",
      "type": "function"
    },
    {
      "inputs": [
        {
          "internalType": "address",
          "name": "spender",
          "type": "address"
        },
        {
          "internalType": "uint256",
          "name": "addedValue",
          "type": "uint256"
        }
      ],
      "name": "increaseAllowance",
      "outputs": [
        {
          "internalType": "bool",
          "name": "",
          "type": "bool"
        }
      ],
      "stateMutability": "nonpayable",
      "type": "function"
    },
    {
      "inputs": [
        {
          "internalType": "address",
          "name": "_collection",
          "type": "address"
        },
        {
          "internalType": "uint256",
          "name": "_tokenId",
          "type": "uint256"
        },
        {
          "internalType": "uint256",
          "name": "_amount",
          "type": "uint256"
        }
      ],
      "name": "initialize",
      "outputs": [],
      "stateMutability": "nonpayable",
      "type": "function"
    },
    {
      "inputs": [],
      "name": "initialized",
      "outputs": [
        {
          "internalType": "bool",
          "name": "",
          "type": "bool"
        }
      ],
      "stateMutability": "view",
      "type": "function"
    },
    {
      "inputs": [],
      "name": "name",
      "outputs": [
        {
          "internalType": "string",
          "name": "",
          "type": "string"
        }
      ],
      "stateMutability": "view",
      "type": "function"
    },
    {
      "inputs": [
        {
          "internalType": "address",
          "name": "owner",
          "type": "address"
        }
      ],
      "name": "nonces",
      "outputs": [
        {
          "internalType": "uint256",
          "name": "",
          "type": "uint256"
        }
      ],
      "stateMutability": "view",
      "type": "function"
    },
    {
      "inputs": [
        {
          "internalType": "address",
          "name": "",
          "type": "address"
        },
        {
          "internalType": "address",
          "name": "",
          "type": "address"
        },
        {
          "internalType": "uint256",
          "name": "",
          "type": "uint256"
        },
        {
          "internalType": "bytes",
          "name": "",
          "type": "bytes"
        }
      ],
      "name": "onERC721Received",
      "outputs": [
        {
          "internalType": "bytes4",
          "name": "",
          "type": "bytes4"
        }
      ],
      "stateMutability": "nonpayable",
      "type": "function"
    },
    {
      "inputs": [],
      "name": "owner",
      "outputs": [
        {
          "internalType": "address",
          "name": "",
          "type": "address"
        }
      ],
      "stateMutability": "view",
      "type": "function"
    },
    {
      "inputs": [
        {
          "internalType": "address",
          "name": "owner",
          "type": "address"
        },
        {
          "internalType": "address",
          "name": "spender",
          "type": "address"
        },
        {
          "internalType": "uint256",
          "name": "value",
          "type": "uint256"
        },
        {
          "internalType": "uint256",
          "name": "deadline",
          "type": "uint256"
        },
        {
          "internalType": "uint8",
          "name": "v",
          "type": "uint8"
        },
        {
          "internalType": "bytes32",
          "name": "r",
          "type": "bytes32"
        },
        {
          "internalType": "bytes32",
          "name": "s",
          "type": "bytes32"
        }
      ],
      "name": "permit",
      "outputs": [],
      "stateMutability": "nonpayable",
      "type": "function"
    },
    {
      "inputs": [],
      "name": "purchase",
      "outputs": [],
      "stateMutability": "payable",
      "type": "function"
    },
    {
      "inputs": [
        {
          "internalType": "uint256",
          "name": "price",
          "type": "uint256"
        }
      ],
      "name": "putForSale",
      "outputs": [],
      "stateMutability": "nonpayable",
      "type": "function"
    },
    {
      "inputs": [
        {
          "internalType": "uint256",
          "name": "_amount",
          "type": "uint256"
        }
      ],
      "name": "redeem",
      "outputs": [],
      "stateMutability": "nonpayable",
      "type": "function"
    },
    {
      "inputs": [],
      "name": "renounceOwnership",
      "outputs": [],
      "stateMutability": "nonpayable",
      "type": "function"
    },
    {
      "inputs": [],
      "name": "salePrice",
      "outputs": [
        {
          "internalType": "uint256",
          "name": "",
          "type": "uint256"
        }
      ],
      "stateMutability": "view",
      "type": "function"
    },
    {
      "inputs": [],
      "name": "symbol",
      "outputs": [
        {
          "internalType": "string",
          "name": "",
          "type": "string"
        }
      ],
      "stateMutability": "view",
      "type": "function"
    },
    {
      "inputs": [],
      "name": "tokenId",
      "outputs": [
        {
          "internalType": "uint256",
          "name": "",
          "type": "uint256"
        }
      ],
      "stateMutability": "view",
      "type": "function"
    },
    {
      "inputs": [],
      "name": "totalSupply",
      "outputs": [
        {
          "internalType": "uint256",
          "name": "",
          "type": "uint256"
        }
      ],
      "stateMutability": "view",
      "type": "function"
    },
    {
      "inputs": [
        {
          "internalType": "address",
          "name": "to",
          "type": "address"
        },
        {
          "internalType": "uint256",
          "name": "amount",
          "type": "uint256"
        }
      ],
      "name": "transfer",
      "outputs": [
        {
          "internalType": "bool",
          "name": "",
          "type": "bool"
        }
      ],
      "stateMutability": "nonpayable",
      "type": "function"
    },
    {
      "inputs": [
        {
          "internalType": "address",
          "name": "from",
          "type": "address"
        },
        {
          "internalType": "address",
          "name": "to",
          "type": "address"
        },
        {
          "internalType": "uint256",
          "name": "amount",
          "type": "uint256"
        }
      ],
      "name": "transferFrom",
      "outputs": [
        {
          "internalType": "bool",
          "name": "",
          "type": "bool"
        }
      ],
      "stateMutability": "nonpayable",
      "type": "function"
    },
    {
      "inputs": [
        {
          "internalType": "address",
          "name": "newOwner",
          "type": "address"
        }
      ],
      "name": "transferOwnership",
      "outputs": [],
      "stateMutability": "nonpayable",
      "type": "function"
    }
  ],
  "transactionHash": "0x54f2a0d7d1199163cabe7fd227e730ec1210646a1365f073839d19c79bf40eb5",
  "args": [],
  "numDeployments": 1,
  "solcInputHash": "de05512e8a8801f2c6d753bb1650f441",
  "bytecode": "0x6101606040526000600c60006101000a81548160ff0219169083151502179055506000600c60016101000a81548160ff0219169083151502179055506000600e60006101000a81548160ff0219169083151502179055503480156200006357600080fd5b506040518060400160405280600781526020017f4d79546f6b656e00000000000000000000000000000000000000000000000000815250806040518060400160405280600181526020017f31000000000000000000000000000000000000000000000000000000000000008152506040518060400160405280600781526020017f4d79546f6b656e000000000000000000000000000000000000000000000000008152506040518060400160405280600381526020017f4d544b000000000000000000000000000000000000000000000000000000000081525081600390816200014e9190620006ae565b508060049081620001609190620006ae565b50505062000183620001776200023a60201b60201c565b6200024260201b60201c565b620001996006836200030860201b90919060201c565b6101208181525050620001b76007826200030860201b90919060201c565b6101408181525050818051906020012060e08181525050808051906020012061010081815250504660a08181525050620001f66200036060201b60201c565b608081815250503073ffffffffffffffffffffffffffffffffffffffff1660c08173ffffffffffffffffffffffffffffffffffffffff1681525050505050620009b8565b600033905090565b6000600560009054906101000a900473ffffffffffffffffffffffffffffffffffffffff16905081600560006101000a81548173ffffffffffffffffffffffffffffffffffffffff021916908373ffffffffffffffffffffffffffffffffffffffff1602179055508173ffffffffffffffffffffffffffffffffffffffff168173ffffffffffffffffffffffffffffffffffffffff167f8be0079c531659141344cd1fd0a4f28419497f9722a3daafe3b4186f6b6457e060405160405180910390a35050565b60006020835110156200032e576200032683620003bd60201b60201c565b90506200035a565b8262000340836200042a60201b60201c565b6000019081620003519190620006ae565b5060ff60001b90505b92915050565b60007f8b73c3c69bb8fe3d512ecc4cf759cc79239f7b179b0ffacaa9a75d522b39400f60e051610100514630604051602001620003a295949392919062000806565b60405160208183030381529060405280519060200120905090565b600080829050601f815111156200040d57826040517f305a27a9000000000000000000000000000000000000000000000000000000008152600401620004049190620008f2565b60405180910390fd5b8051816200041b9062000948565b60001c1760001b915050919050565b6000819050919050565b600081519050919050565b7f4e487b7100000000000000000000000000000000000000000000000000000000600052604160045260246000fd5b7f4e487b7100000000000000000000000000000000000000000000000000000000600052602260045260246000fd5b60006002820490506001821680620004b657607f821691505b602082108103620004cc57620004cb6200046e565b5b50919050565b60008190508160005260206000209050919050565b60006020601f8301049050919050565b600082821b905092915050565b600060088302620005367fffffffffffffffffffffffffffffffffffffffffffffffffffffffffffffffff82620004f7565b620005428683620004f7565b95508019841693508086168417925050509392505050565b6000819050919050565b6000819050919050565b60006200058f6200058962000583846200055a565b62000564565b6200055a565b9050919050565b6000819050919050565b620005ab836200056e565b620005c3620005ba8262000596565b84845462000504565b825550505050565b600090565b620005da620005cb565b620005e7818484620005a0565b505050565b5b818110156200060f5762000603600082620005d0565b600181019050620005ed565b5050565b601f8211156200065e576200062881620004d2565b6200063384620004e7565b8101602085101562000643578190505b6200065b6200065285620004e7565b830182620005ec565b50505b505050565b600082821c905092915050565b6000620006836000198460080262000663565b1980831691505092915050565b60006200069e838362000670565b9150826002028217905092915050565b620006b98262000434565b67ffffffffffffffff811115620006d557620006d46200043f565b5b620006e182546200049d565b620006ee82828562000613565b600060209050601f83116001811462000726576000841562000711578287015190505b6200071d858262000690565b8655506200078d565b601f1984166200073686620004d2565b60005b82811015620007605784890151825560018201915060208501945060208101905062000739565b868310156200078057848901516200077c601f89168262000670565b8355505b6001600288020188555050505b505050505050565b6000819050919050565b620007aa8162000795565b82525050565b620007bb816200055a565b82525050565b600073ffffffffffffffffffffffffffffffffffffffff82169050919050565b6000620007ee82620007c1565b9050919050565b6200080081620007e1565b82525050565b600060a0820190506200081d60008301886200079f565b6200082c60208301876200079f565b6200083b60408301866200079f565b6200084a6060830185620007b0565b620008596080830184620007f5565b9695505050505050565b600082825260208201905092915050565b60005b838110156200089457808201518184015260208101905062000877565b60008484015250505050565b6000601f19601f8301169050919050565b6000620008be8262000434565b620008ca818562000863565b9350620008dc81856020860162000874565b620008e781620008a0565b840191505092915050565b600060208201905081810360008301526200090e8184620008b1565b905092915050565b600081519050919050565b6000819050602082019050919050565b60006200093f825162000795565b80915050919050565b6000620009558262000916565b82620009618462000921565b90506200096e8162000931565b92506020821015620009b157620009ac7fffffffffffffffffffffffffffffffffffffffffffffffffffffffffffffffff83602003600802620004f7565b831692505b5050919050565b60805160a05160c05160e05161010051610120516101405161384c62000a136000396000610d1701526000610ce301526000611e0d01526000611dec015260006117c0015260006118160152600061183f015261384c6000f3fe6080604052600436106101cd5760003560e01c80637a1ac61e116100f7578063a9059cbb11610095578063f2fde38b11610064578063f2fde38b1461069b578063f51f96dd146106c4578063f8b2cb4f146106ef578063f97ed5091461072c576101cd565b8063a9059cbb146105cf578063d505accf1461060c578063db006a7514610635578063dd62ed3e1461065e576101cd565b806384b0196e116100d157806384b0196e1461050b5780638da5cb5b1461053c57806395d89b4114610567578063a457c2d714610592576101cd565b80637a1ac61e1461047a5780637de1e536146104a35780637ecebe00146104ce576101cd565b806323b872dd1161016f578063466ccac01161013e578063466ccac0146103f157806364edfbf01461041c57806370a0823114610426578063715018a614610463576101cd565b806323b872dd14610321578063313ce5671461035e5780633644e5151461038957806339509351146103b4576101cd565b8063158ef93e116101ab578063158ef93e1461027757806317d70f7c146102a257806318160ddd146102cd5780631f078ced146102f8576101cd565b806306fdde03146101d2578063095ea7b3146101fd578063150b7a021461023a575b600080fd5b3480156101de57600080fd5b506101e7610757565b6040516101f49190612250565b60405180910390f35b34801561020957600080fd5b50610224600480360381019061021f919061231a565b6107e9565b6040516102319190612375565b60405180910390f35b34801561024657600080fd5b50610261600480360381019061025c91906124c5565b61080c565b60405161026e9190612583565b60405180910390f35b34801561028357600080fd5b5061028c610820565b6040516102999190612375565b60405180910390f35b3480156102ae57600080fd5b506102b7610833565b6040516102c491906125ad565b60405180910390f35b3480156102d957600080fd5b506102e2610839565b6040516102ef91906125ad565b60405180910390f35b34801561030457600080fd5b5061031f600480360381019061031a91906125c8565b610843565b005b34801561032d57600080fd5b50610348600480360381019061034391906125f5565b610870565b6040516103559190612375565b60405180910390f35b34801561036a57600080fd5b5061037361089f565b6040516103809190612664565b60405180910390f35b34801561039557600080fd5b5061039e6108a8565b6040516103ab9190612698565b60405180910390f35b3480156103c057600080fd5b506103db60048036038101906103d6919061231a565b6108b7565b6040516103e89190612375565b60405180910390f35b3480156103fd57600080fd5b506104066108ee565b6040516104139190612375565b60405180910390f35b610424610901565b005b34801561043257600080fd5b5061044d600480360381019061044891906126b3565b610a60565b60405161045a91906125ad565b60405180910390f35b34801561046f57600080fd5b50610478610aa8565b005b34801561048657600080fd5b506104a1600480360381019061049c91906126e0565b610abc565b005b3480156104af57600080fd5b506104b8610c5a565b6040516104c59190612792565b60405180910390f35b3480156104da57600080fd5b506104f560048036038101906104f091906126b3565b610c80565b60405161050291906125ad565b60405180910390f35b34801561051757600080fd5b50610520610cd0565b60405161053397969594939291906128b5565b60405180910390f35b34801561054857600080fd5b50610551610dd2565b60405161055e9190612939565b60405180910390f35b34801561057357600080fd5b5061057c610dfc565b6040516105899190612250565b60405180910390f35b34801561059e57600080fd5b506105b960048036038101906105b4919061231a565b610e8e565b6040516105c69190612375565b60405180910390f35b3480156105db57600080fd5b506105f660048036038101906105f1919061231a565b610f05565b6040516106039190612375565b60405180910390f35b34801561061857600080fd5b50610633600480360381019061062e91906129ac565b610f28565b005b34801561064157600080fd5b5061065c600480360381019061065791906125c8565b61106a565b005b34801561066a57600080fd5b5061068560048036038101906106809190612a4e565b611136565b60405161069291906125ad565b60405180910390f35b3480156106a757600080fd5b506106c260048036038101906106bd91906126b3565b6111bd565b005b3480156106d057600080fd5b506106d9611240565b6040516106e691906125ad565b60405180910390f35b3480156106fb57600080fd5b50610716600480360381019061071191906126b3565b611246565b60405161072391906125ad565b60405180910390f35b34801561073857600080fd5b50610741611258565b60405161074e9190612375565b60405180910390f35b60606003805461076690612abd565b80601f016020809104026020016040519081016040528092919081815260200182805461079290612abd565b80156107df5780601f106107b4576101008083540402835291602001916107df565b820191906000526020600020905b8154815290600101906020018083116107c257829003601f168201915b5050505050905090565b6000806107f461126b565b9050610801818585611273565b600191505092915050565b600063150b7a0260e01b9050949350505050565b600c60009054906101000a900460ff1681565b600b5481565b6000600254905090565b61084b61143c565b80600d819055506001600c60016101000a81548160ff02191690831515021790555050565b60008061087b61126b565b90506108888582856114ba565b610893858585611546565b60019150509392505050565b60006012905090565b60006108b26117bc565b905090565b6000806108c261126b565b90506108e38185856108d48589611136565b6108de9190612b1d565b611273565b600191505092915050565b600c60019054906101000a900460ff1681565b600c60019054906101000a900460ff16610950576040517f08c379a000000000000000000000000000000000000000000000000000000000815260040161094790612b9d565b60405180910390fd5b600d54341015610995576040517f08c379a000000000000000000000000000000000000000000000000000000000815260040161098c90612c09565b60405180910390fd5b600a60009054906101000a900473ffffffffffffffffffffffffffffffffffffffff1673ffffffffffffffffffffffffffffffffffffffff166323b872dd3033600b546040518463ffffffff1660e01b81526004016109f693929190612c29565b600060405180830381600087803b158015610a1057600080fd5b505af1158015610a24573d6000803e3d6000fd5b505050506000600c60016101000a81548160ff0219169083151502179055506001600e60006101000a81548160ff021916908315150217905550565b60008060008373ffffffffffffffffffffffffffffffffffffffff1673ffffffffffffffffffffffffffffffffffffffff168152602001908152602001600020549050919050565b610ab061143c565b610aba6000611873565b565b610ac461143c565b600c60009054906101000a900460ff1615610b14576040517f08c379a0000000000000000000000000000000000000000000000000000000008152600401610b0b90612cac565b60405180910390fd5b60008111610b57576040517f08c379a0000000000000000000000000000000000000000000000000000000008152600401610b4e90612d18565b60405180910390fd5b82600a60006101000a81548173ffffffffffffffffffffffffffffffffffffffff021916908373ffffffffffffffffffffffffffffffffffffffff160217905550600a60009054906101000a900473ffffffffffffffffffffffffffffffffffffffff1673ffffffffffffffffffffffffffffffffffffffff166342842e0e3330856040518463ffffffff1660e01b8152600401610bf793929190612c29565b600060405180830381600087803b158015610c1157600080fd5b505af1158015610c25573d6000803e3d6000fd5b5050505081600b819055506001600c60006101000a81548160ff021916908315150217905550610c553382611939565b505050565b600a60009054906101000a900473ffffffffffffffffffffffffffffffffffffffff1681565b6000610cc9600860008473ffffffffffffffffffffffffffffffffffffffff1673ffffffffffffffffffffffffffffffffffffffff168152602001908152602001600020611a8f565b9050919050565b600060608060008060006060610d1060067f0000000000000000000000000000000000000000000000000000000000000000611a9d90919063ffffffff16565b610d4460077f0000000000000000000000000000000000000000000000000000000000000000611a9d90919063ffffffff16565b46306000801b600067ffffffffffffffff811115610d6557610d6461239a565b5b604051908082528060200260200182016040528015610d935781602001602082028036833780820191505090505b507f0f00000000000000000000000000000000000000000000000000000000000000959493929190965096509650965096509650965090919293949596565b6000600560009054906101000a900473ffffffffffffffffffffffffffffffffffffffff16905090565b606060048054610e0b90612abd565b80601f0160208091040260200160405190810160405280929190818152602001828054610e3790612abd565b8015610e845780601f10610e5957610100808354040283529160200191610e84565b820191906000526020600020905b815481529060010190602001808311610e6757829003601f168201915b5050505050905090565b600080610e9961126b565b90506000610ea78286611136565b905083811015610eec576040517f08c379a0000000000000000000000000000000000000000000000000000000008152600401610ee390612daa565b60405180910390fd5b610ef98286868403611273565b60019250505092915050565b600080610f1061126b565b9050610f1d818585611546565b600191505092915050565b83421115610f6b576040517f08c379a0000000000000000000000000000000000000000000000000000000008152600401610f6290612e16565b60405180910390fd5b60007f6e71edae12b1b97f4d1f60370fef10105fa2faae0126114a169c64845d6126c9888888610f9a8c611b4d565b89604051602001610fb096959493929190612e36565b6040516020818303038152906040528051906020012090506000610fd382611bab565b90506000610fe382878787611bc5565b90508973ffffffffffffffffffffffffffffffffffffffff168173ffffffffffffffffffffffffffffffffffffffff1614611053576040517f08c379a000000000000000000000000000000000000000000000000000000000815260040161104a90612ee3565b60405180910390fd5b61105e8a8a8a611273565b50505050505050505050565b600e60009054906101000a900460ff166110b9576040517f08c379a00000000000000000000000000000000000000000000000000000000081526004016110b090612f4f565b60405180910390fd5b600047905060006110c8610839565b82846110d49190612f6f565b6110de9190612fe0565b90506110ea3384611bf0565b3373ffffffffffffffffffffffffffffffffffffffff166108fc829081150290604051600060405180830381858888f19350505050158015611130573d6000803e3d6000fd5b50505050565b6000600160008473ffffffffffffffffffffffffffffffffffffffff1673ffffffffffffffffffffffffffffffffffffffff16815260200190815260200160002060008373ffffffffffffffffffffffffffffffffffffffff1673ffffffffffffffffffffffffffffffffffffffff16815260200190815260200160002054905092915050565b6111c561143c565b600073ffffffffffffffffffffffffffffffffffffffff168173ffffffffffffffffffffffffffffffffffffffff1603611234576040517f08c379a000000000000000000000000000000000000000000000000000000000815260040161122b90613083565b60405180910390fd5b61123d81611873565b50565b600d5481565b600061125182610a60565b9050919050565b600e60009054906101000a900460ff1681565b600033905090565b600073ffffffffffffffffffffffffffffffffffffffff168373ffffffffffffffffffffffffffffffffffffffff16036112e2576040517f08c379a00000000000000000000000000000000000000000000000000000000081526004016112d990613115565b60405180910390fd5b600073ffffffffffffffffffffffffffffffffffffffff168273ffffffffffffffffffffffffffffffffffffffff1603611351576040517f08c379a0000000000000000000000000000000000000000000000000000000008152600401611348906131a7565b60405180910390fd5b80600160008573ffffffffffffffffffffffffffffffffffffffff1673ffffffffffffffffffffffffffffffffffffffff16815260200190815260200160002060008473ffffffffffffffffffffffffffffffffffffffff1673ffffffffffffffffffffffffffffffffffffffff168152602001908152602001600020819055508173ffffffffffffffffffffffffffffffffffffffff168373ffffffffffffffffffffffffffffffffffffffff167f8c5be1e5ebec7d5bd14f71427d1e84f3dd0314c0f7b2291e5b200ac8c7c3b9258360405161142f91906125ad565b60405180910390a3505050565b61144461126b565b73ffffffffffffffffffffffffffffffffffffffff16611462610dd2565b73ffffffffffffffffffffffffffffffffffffffff16146114b8576040517f08c379a00000000000000000000000000000000000000000000000000000000081526004016114af90613213565b60405180910390fd5b565b60006114c68484611136565b90507fffffffffffffffffffffffffffffffffffffffffffffffffffffffffffffffff81146115405781811015611532576040517f08c379a00000000000000000000000000000000000000000000000000000000081526004016115299061327f565b60405180910390fd5b61153f8484848403611273565b5b50505050565b600073ffffffffffffffffffffffffffffffffffffffff168373ffffffffffffffffffffffffffffffffffffffff16036115b5576040517f08c379a00000000000000000000000000000000000000000000000000000000081526004016115ac90613311565b60405180910390fd5b600073ffffffffffffffffffffffffffffffffffffffff168273ffffffffffffffffffffffffffffffffffffffff1603611624576040517f08c379a000000000000000000000000000000000000000000000000000000000815260040161161b906133a3565b60405180910390fd5b61162f838383611dbd565b60008060008573ffffffffffffffffffffffffffffffffffffffff1673ffffffffffffffffffffffffffffffffffffffff168152602001908152602001600020549050818110156116b5576040517f08c379a00000000000000000000000000000000000000000000000000000000081526004016116ac90613435565b60405180910390fd5b8181036000808673ffffffffffffffffffffffffffffffffffffffff1673ffffffffffffffffffffffffffffffffffffffff16815260200190815260200160002081905550816000808573ffffffffffffffffffffffffffffffffffffffff1673ffffffffffffffffffffffffffffffffffffffff168152602001908152602001600020600082825401925050819055508273ffffffffffffffffffffffffffffffffffffffff168473ffffffffffffffffffffffffffffffffffffffff167fddf252ad1be2c89b69c2b068fc378daa952ba7f163c4a11628f55a4df523b3ef846040516117a391906125ad565b60405180910390a36117b6848484611dc2565b50505050565b60007f000000000000000000000000000000000000000000000000000000000000000073ffffffffffffffffffffffffffffffffffffffff163073ffffffffffffffffffffffffffffffffffffffff1614801561183857507f000000000000000000000000000000000000000000000000000000000000000046145b15611865577f00000000000000000000000000000000000000000000000000000000000000009050611870565b61186d611dc7565b90505b90565b6000600560009054906101000a900473ffffffffffffffffffffffffffffffffffffffff16905081600560006101000a81548173ffffffffffffffffffffffffffffffffffffffff021916908373ffffffffffffffffffffffffffffffffffffffff1602179055508173ffffffffffffffffffffffffffffffffffffffff168173ffffffffffffffffffffffffffffffffffffffff167f8be0079c531659141344cd1fd0a4f28419497f9722a3daafe3b4186f6b6457e060405160405180910390a35050565b600073ffffffffffffffffffffffffffffffffffffffff168273ffffffffffffffffffffffffffffffffffffffff16036119a8576040517f08c379a000000000000000000000000000000000000000000000000000000000815260040161199f906134a1565b60405180910390fd5b6119b460008383611dbd565b80600260008282546119c69190612b1d565b92505081905550806000808473ffffffffffffffffffffffffffffffffffffffff1673ffffffffffffffffffffffffffffffffffffffff168152602001908152602001600020600082825401925050819055508173ffffffffffffffffffffffffffffffffffffffff16600073ffffffffffffffffffffffffffffffffffffffff167fddf252ad1be2c89b69c2b068fc378daa952ba7f163c4a11628f55a4df523b3ef83604051611a7791906125ad565b60405180910390a3611a8b60008383611dc2565b5050565b600081600001549050919050565b606060ff60001b8314611aba57611ab383611e5d565b9050611b47565b818054611ac690612abd565b80601f0160208091040260200160405190810160405280929190818152602001828054611af290612abd565b8015611b3f5780601f10611b1457610100808354040283529160200191611b3f565b820191906000526020600020905b815481529060010190602001808311611b2257829003601f168201915b505050505090505b92915050565b600080600860008473ffffffffffffffffffffffffffffffffffffffff1673ffffffffffffffffffffffffffffffffffffffff1681526020019081526020016000209050611b9a81611a8f565b9150611ba581611ed1565b50919050565b6000611bbe611bb86117bc565b83611ee7565b9050919050565b6000806000611bd687878787611f28565b91509150611be38161200a565b8192505050949350505050565b600073ffffffffffffffffffffffffffffffffffffffff168273ffffffffffffffffffffffffffffffffffffffff1603611c5f576040517f08c379a0000000000000000000000000000000000000000000000000000000008152600401611c5690613533565b60405180910390fd5b611c6b82600083611dbd565b60008060008473ffffffffffffffffffffffffffffffffffffffff1673ffffffffffffffffffffffffffffffffffffffff16815260200190815260200160002054905081811015611cf1576040517f08c379a0000000000000000000000000000000000000000000000000000000008152600401611ce8906135c5565b60405180910390fd5b8181036000808573ffffffffffffffffffffffffffffffffffffffff1673ffffffffffffffffffffffffffffffffffffffff1681526020019081526020016000208190555081600260008282540392505081905550600073ffffffffffffffffffffffffffffffffffffffff168373ffffffffffffffffffffffffffffffffffffffff167fddf252ad1be2c89b69c2b068fc378daa952ba7f163c4a11628f55a4df523b3ef84604051611da491906125ad565b60405180910390a3611db883600084611dc2565b505050565b505050565b505050565b60007f8b73c3c69bb8fe3d512ecc4cf759cc79239f7b179b0ffacaa9a75d522b39400f7f00000000000000000000000000000000000000000000000000000000000000007f00000000000000000000000000000000000000000000000000000000000000004630604051602001611e429594939291906135e5565b60405160208183030381529060405280519060200120905090565b60606000611e6a83612170565b90506000602067ffffffffffffffff811115611e8957611e8861239a565b5b6040519080825280601f01601f191660200182016040528015611ebb5781602001600182028036833780820191505090505b5090508181528360208201528092505050919050565b6001816000016000828254019250508190555050565b60006040517f190100000000000000000000000000000000000000000000000000000000000081528360028201528260228201526042812091505092915050565b6000807f7fffffffffffffffffffffffffffffff5d576e7357a4501ddfe92f46681b20a08360001c1115611f63576000600391509150612001565b600060018787878760405160008152602001604052604051611f889493929190613638565b6020604051602081039080840390855afa158015611faa573d6000803e3d6000fd5b505050602060405103519050600073ffffffffffffffffffffffffffffffffffffffff168173ffffffffffffffffffffffffffffffffffffffff1603611ff857600060019250925050612001565b80600092509250505b94509492505050565b6000600481111561201e5761201d61367d565b5b8160048111156120315761203061367d565b5b031561216d576001600481111561204b5761204a61367d565b5b81600481111561205e5761205d61367d565b5b0361209e576040517f08c379a0000000000000000000000000000000000000000000000000000000008152600401612095906136f8565b60405180910390fd5b600260048111156120b2576120b161367d565b5b8160048111156120c5576120c461367d565b5b03612105576040517f08c379a00000000000000000000000000000000000000000000000000000000081526004016120fc90613764565b60405180910390fd5b600360048111156121195761211861367d565b5b81600481111561212c5761212b61367d565b5b0361216c576040517f08c379a0000000000000000000000000000000000000000000000000000000008152600401612163906137f6565b60405180910390fd5b5b50565b60008060ff8360001c169050601f8111156121b7576040517fb3512b0c00000000000000000000000000000000000000000000000000000000815260040160405180910390fd5b80915050919050565b600081519050919050565b600082825260208201905092915050565b60005b838110156121fa5780820151818401526020810190506121df565b60008484015250505050565b6000601f19601f8301169050919050565b6000612222826121c0565b61222c81856121cb565b935061223c8185602086016121dc565b61224581612206565b840191505092915050565b6000602082019050818103600083015261226a8184612217565b905092915050565b6000604051905090565b600080fd5b600080fd5b600073ffffffffffffffffffffffffffffffffffffffff82169050919050565b60006122b182612286565b9050919050565b6122c1816122a6565b81146122cc57600080fd5b50565b6000813590506122de816122b8565b92915050565b6000819050919050565b6122f7816122e4565b811461230257600080fd5b50565b600081359050612314816122ee565b92915050565b600080604083850312156123315761233061227c565b5b600061233f858286016122cf565b925050602061235085828601612305565b9150509250929050565b60008115159050919050565b61236f8161235a565b82525050565b600060208201905061238a6000830184612366565b92915050565b600080fd5b600080fd5b7f4e487b7100000000000000000000000000000000000000000000000000000000600052604160045260246000fd5b6123d282612206565b810181811067ffffffffffffffff821117156123f1576123f061239a565b5b80604052505050565b6000612404612272565b905061241082826123c9565b919050565b600067ffffffffffffffff8211156124305761242f61239a565b5b61243982612206565b9050602081019050919050565b82818337600083830152505050565b600061246861246384612415565b6123fa565b90508281526020810184848401111561248457612483612395565b5b61248f848285612446565b509392505050565b600082601f8301126124ac576124ab612390565b5b81356124bc848260208601612455565b91505092915050565b600080600080608085870312156124df576124de61227c565b5b60006124ed878288016122cf565b94505060206124fe878288016122cf565b935050604061250f87828801612305565b925050606085013567ffffffffffffffff8111156125305761252f612281565b5b61253c87828801612497565b91505092959194509250565b60007fffffffff0000000000000000000000000000000000000000000000000000000082169050919050565b61257d81612548565b82525050565b60006020820190506125986000830184612574565b92915050565b6125a7816122e4565b82525050565b60006020820190506125c2600083018461259e565b92915050565b6000602082840312156125de576125dd61227c565b5b60006125ec84828501612305565b91505092915050565b60008060006060848603121561260e5761260d61227c565b5b600061261c868287016122cf565b935050602061262d868287016122cf565b925050604061263e86828701612305565b9150509250925092565b600060ff82169050919050565b61265e81612648565b82525050565b60006020820190506126796000830184612655565b92915050565b6000819050919050565b6126928161267f565b82525050565b60006020820190506126ad6000830184612689565b92915050565b6000602082840312156126c9576126c861227c565b5b60006126d7848285016122cf565b91505092915050565b6000806000606084860312156126f9576126f861227c565b5b6000612707868287016122cf565b935050602061271886828701612305565b925050604061272986828701612305565b9150509250925092565b6000819050919050565b600061275861275361274e84612286565b612733565b612286565b9050919050565b600061276a8261273d565b9050919050565b600061277c8261275f565b9050919050565b61278c81612771565b82525050565b60006020820190506127a76000830184612783565b92915050565b60007fff0000000000000000000000000000000000000000000000000000000000000082169050919050565b6127e2816127ad565b82525050565b6127f1816122a6565b82525050565b600081519050919050565b600082825260208201905092915050565b6000819050602082019050919050565b61282c816122e4565b82525050565b600061283e8383612823565b60208301905092915050565b6000602082019050919050565b6000612862826127f7565b61286c8185612802565b935061287783612813565b8060005b838110156128a857815161288f8882612832565b975061289a8361284a565b92505060018101905061287b565b5085935050505092915050565b600060e0820190506128ca600083018a6127d9565b81810360208301526128dc8189612217565b905081810360408301526128f08188612217565b90506128ff606083018761259e565b61290c60808301866127e8565b61291960a0830185612689565b81810360c083015261292b8184612857565b905098975050505050505050565b600060208201905061294e60008301846127e8565b92915050565b61295d81612648565b811461296857600080fd5b50565b60008135905061297a81612954565b92915050565b6129898161267f565b811461299457600080fd5b50565b6000813590506129a681612980565b92915050565b600080600080600080600060e0888a0312156129cb576129ca61227c565b5b60006129d98a828b016122cf565b97505060206129ea8a828b016122cf565b96505060406129fb8a828b01612305565b9550506060612a0c8a828b01612305565b9450506080612a1d8a828b0161296b565b93505060a0612a2e8a828b01612997565b92505060c0612a3f8a828b01612997565b91505092959891949750929550565b60008060408385031215612a6557612a6461227c565b5b6000612a73858286016122cf565b9250506020612a84858286016122cf565b9150509250929050565b7f4e487b7100000000000000000000000000000000000000000000000000000000600052602260045260246000fd5b60006002820490506001821680612ad557607f821691505b602082108103612ae857612ae7612a8e565b5b50919050565b7f4e487b7100000000000000000000000000000000000000000000000000000000600052601160045260246000fd5b6000612b28826122e4565b9150612b33836122e4565b9250828201905080821115612b4b57612b4a612aee565b5b92915050565b7f4e6f7420666f722073616c650000000000000000000000000000000000000000600082015250565b6000612b87600c836121cb565b9150612b9282612b51565b602082019050919050565b60006020820190508181036000830152612bb681612b7a565b9050919050565b7f4e6f7420656e6f7567682065746865722073656e740000000000000000000000600082015250565b6000612bf36015836121cb565b9150612bfe82612bbd565b602082019050919050565b60006020820190508181036000830152612c2281612be6565b9050919050565b6000606082019050612c3e60008301866127e8565b612c4b60208301856127e8565b612c58604083018461259e565b949350505050565b7f416c726561647920696e697469616c697a656400000000000000000000000000600082015250565b6000612c966013836121cb565b9150612ca182612c60565b602082019050919050565b60006020820190508181036000830152612cc581612c89565b9050919050565b7f416d6f756e74206e6565647320746f206265206d6f7265207468616e20300000600082015250565b6000612d02601e836121cb565b9150612d0d82612ccc565b602082019050919050565b60006020820190508181036000830152612d3181612cf5565b9050919050565b7f45524332303a2064656372656173656420616c6c6f77616e63652062656c6f7760008201527f207a65726f000000000000000000000000000000000000000000000000000000602082015250565b6000612d946025836121cb565b9150612d9f82612d38565b604082019050919050565b60006020820190508181036000830152612dc381612d87565b9050919050565b7f45524332305065726d69743a206578706972656420646561646c696e65000000600082015250565b6000612e00601d836121cb565b9150612e0b82612dca565b602082019050919050565b60006020820190508181036000830152612e2f81612df3565b9050919050565b600060c082019050612e4b6000830189612689565b612e5860208301886127e8565b612e6560408301876127e8565b612e72606083018661259e565b612e7f608083018561259e565b612e8c60a083018461259e565b979650505050505050565b7f45524332305065726d69743a20696e76616c6964207369676e61747572650000600082015250565b6000612ecd601e836121cb565b9150612ed882612e97565b602082019050919050565b60006020820190508181036000830152612efc81612ec0565b9050919050565b7f526564656d7074696f6e206e6f7420617661696c61626c650000000000000000600082015250565b6000612f396018836121cb565b9150612f4482612f03565b602082019050919050565b60006020820190508181036000830152612f6881612f2c565b9050919050565b6000612f7a826122e4565b9150612f85836122e4565b9250828202612f93816122e4565b91508282048414831517612faa57612fa9612aee565b5b5092915050565b7f4e487b7100000000000000000000000000000000000000000000000000000000600052601260045260246000fd5b6000612feb826122e4565b9150612ff6836122e4565b92508261300657613005612fb1565b5b828204905092915050565b7f4f776e61626c653a206e6577206f776e657220697320746865207a65726f206160008201527f6464726573730000000000000000000000000000000000000000000000000000602082015250565b600061306d6026836121cb565b915061307882613011565b604082019050919050565b6000602082019050818103600083015261309c81613060565b9050919050565b7f45524332303a20617070726f76652066726f6d20746865207a65726f2061646460008201527f7265737300000000000000000000000000000000000000000000000000000000602082015250565b60006130ff6024836121cb565b915061310a826130a3565b604082019050919050565b6000602082019050818103600083015261312e816130f2565b9050919050565b7f45524332303a20617070726f766520746f20746865207a65726f20616464726560008201527f7373000000000000000000000000000000000000000000000000000000000000602082015250565b60006131916022836121cb565b915061319c82613135565b604082019050919050565b600060208201905081810360008301526131c081613184565b9050919050565b7f4f776e61626c653a2063616c6c6572206973206e6f7420746865206f776e6572600082015250565b60006131fd6020836121cb565b9150613208826131c7565b602082019050919050565b6000602082019050818103600083015261322c816131f0565b9050919050565b7f45524332303a20696e73756666696369656e7420616c6c6f77616e6365000000600082015250565b6000613269601d836121cb565b915061327482613233565b602082019050919050565b600060208201905081810360008301526132988161325c565b9050919050565b7f45524332303a207472616e736665722066726f6d20746865207a65726f20616460008201527f6472657373000000000000000000000000000000000000000000000000000000602082015250565b60006132fb6025836121cb565b91506133068261329f565b604082019050919050565b6000602082019050818103600083015261332a816132ee565b9050919050565b7f45524332303a207472616e7366657220746f20746865207a65726f206164647260008201527f6573730000000000000000000000000000000000000000000000000000000000602082015250565b600061338d6023836121cb565b915061339882613331565b604082019050919050565b600060208201905081810360008301526133bc81613380565b9050919050565b7f45524332303a207472616e7366657220616d6f756e742065786365656473206260008201527f616c616e63650000000000000000000000000000000000000000000000000000602082015250565b600061341f6026836121cb565b915061342a826133c3565b604082019050919050565b6000602082019050818103600083015261344e81613412565b9050919050565b7f45524332303a206d696e7420746f20746865207a65726f206164647265737300600082015250565b600061348b601f836121cb565b915061349682613455565b602082019050919050565b600060208201905081810360008301526134ba8161347e565b9050919050565b7f45524332303a206275726e2066726f6d20746865207a65726f2061646472657360008201527f7300000000000000000000000000000000000000000000000000000000000000602082015250565b600061351d6021836121cb565b9150613528826134c1565b604082019050919050565b6000602082019050818103600083015261354c81613510565b9050919050565b7f45524332303a206275726e20616d6f756e7420657863656564732062616c616e60008201527f6365000000000000000000000000000000000000000000000000000000000000602082015250565b60006135af6022836121cb565b91506135ba82613553565b604082019050919050565b600060208201905081810360008301526135de816135a2565b9050919050565b600060a0820190506135fa6000830188612689565b6136076020830187612689565b6136146040830186612689565b613621606083018561259e565b61362e60808301846127e8565b9695505050505050565b600060808201905061364d6000830187612689565b61365a6020830186612655565b6136676040830185612689565b6136746060830184612689565b95945050505050565b7f4e487b7100000000000000000000000000000000000000000000000000000000600052602160045260246000fd5b7f45434453413a20696e76616c6964207369676e61747572650000000000000000600082015250565b60006136e26018836121cb565b91506136ed826136ac565b602082019050919050565b60006020820190508181036000830152613711816136d5565b9050919050565b7f45434453413a20696e76616c6964207369676e6174757265206c656e67746800600082015250565b600061374e601f836121cb565b915061375982613718565b602082019050919050565b6000602082019050818103600083015261377d81613741565b9050919050565b7f45434453413a20696e76616c6964207369676e6174757265202773272076616c60008201527f7565000000000000000000000000000000000000000000000000000000000000602082015250565b60006137e06022836121cb565b91506137eb82613784565b604082019050919050565b6000602082019050818103600083015261380f816137d3565b905091905056fea2646970667358221220e85799f72d28da7364431e46c238c7cd8effc4fd120ca29dff4a744e0b78821964736f6c63430008140033",
  "devdoc": {
    "events": {
      "Approval(address,address,uint256)": {
        "details": "Emitted when the allowance of a `spender` for an `owner` is set by a call to {approve}. `value` is the new allowance."
      },
      "EIP712DomainChanged()": {
        "details": "MAY be emitted to signal that the domain could have changed."
      },
      "Transfer(address,address,uint256)": {
        "details": "Emitted when `value` tokens are moved from one account (`from`) to another (`to`). Note that `value` may be zero."
      }
    },
    "kind": "dev",
    "methods": {
      "DOMAIN_SEPARATOR()": {
        "details": "See {IERC20Permit-DOMAIN_SEPARATOR}."
      },
      "allowance(address,address)": {
        "details": "See {IERC20-allowance}."
      },
      "approve(address,uint256)": {
        "details": "See {IERC20-approve}. NOTE: If `amount` is the maximum `uint256`, the allowance is not updated on `transferFrom`. This is semantically equivalent to an infinite approval. Requirements: - `spender` cannot be the zero address."
      },
      "balanceOf(address)": {
        "details": "See {IERC20-balanceOf}."
      },
      "decimals()": {
        "details": "Returns the number of decimals used to get its user representation. For example, if `decimals` equals `2`, a balance of `505` tokens should be displayed to a user as `5.05` (`505 / 10 ** 2`). Tokens usually opt for a value of 18, imitating the relationship between Ether and Wei. This is the default value returned by this function, unless it's overridden. NOTE: This information is only used for _display_ purposes: it in no way affects any of the arithmetic of the contract, including {IERC20-balanceOf} and {IERC20-transfer}."
      },
      "decreaseAllowance(address,uint256)": {
        "details": "Atomically decreases the allowance granted to `spender` by the caller. This is an alternative to {approve} that can be used as a mitigation for problems described in {IERC20-approve}. Emits an {Approval} event indicating the updated allowance. Requirements: - `spender` cannot be the zero address. - `spender` must have allowance for the caller of at least `subtractedValue`."
      },
      "eip712Domain()": {
        "details": "See {EIP-5267}. _Available since v4.9._"
      },
      "increaseAllowance(address,uint256)": {
        "details": "Atomically increases the allowance granted to `spender` by the caller. This is an alternative to {approve} that can be used as a mitigation for problems described in {IERC20-approve}. Emits an {Approval} event indicating the updated allowance. Requirements: - `spender` cannot be the zero address."
      },
      "name()": {
        "details": "Returns the name of the token."
      },
      "nonces(address)": {
        "details": "See {IERC20Permit-nonces}."
      },
      "onERC721Received(address,address,uint256,bytes)": {
        "details": "See {IERC721Receiver-onERC721Received}. Always returns `IERC721Receiver.onERC721Received.selector`."
      },
      "owner()": {
        "details": "Returns the address of the current owner."
      },
      "permit(address,address,uint256,uint256,uint8,bytes32,bytes32)": {
        "details": "See {IERC20Permit-permit}."
      },
      "renounceOwnership()": {
        "details": "Leaves the contract without owner. It will not be possible to call `onlyOwner` functions. Can only be called by the current owner. NOTE: Renouncing ownership will leave the contract without an owner, thereby disabling any functionality that is only available to the owner."
      },
      "symbol()": {
        "details": "Returns the symbol of the token, usually a shorter version of the name."
      },
      "totalSupply()": {
        "details": "See {IERC20-totalSupply}."
      },
      "transfer(address,uint256)": {
        "details": "See {IERC20-transfer}. Requirements: - `to` cannot be the zero address. - the caller must have a balance of at least `amount`."
      },
      "transferFrom(address,address,uint256)": {
        "details": "See {IERC20-transferFrom}. Emits an {Approval} event indicating the updated allowance. This is not required by the EIP. See the note at the beginning of {ERC20}. NOTE: Does not update the allowance if the current allowance is the maximum `uint256`. Requirements: - `from` and `to` cannot be the zero address. - `from` must have a balance of at least `amount`. - the caller must have allowance for ``from``'s tokens of at least `amount`."
      },
      "transferOwnership(address)": {
        "details": "Transfers ownership of the contract to a new account (`newOwner`). Can only be called by the current owner."
      }
    },
    "version": 1
  },
  "userdoc": {
    "kind": "user",
    "methods": {},
    "version": 1
  },
  "storageLayout": {
    "storage": [
      {
        "astId": 218,
        "contract": "contracts/FractionalizedNFT.sol:FractionalizedNFT",
        "label": "_balances",
        "offset": 0,
        "slot": "0",
        "type": "t_mapping(t_address,t_uint256)"
      },
      {
        "astId": 224,
        "contract": "contracts/FractionalizedNFT.sol:FractionalizedNFT",
        "label": "_allowances",
        "offset": 0,
        "slot": "1",
        "type": "t_mapping(t_address,t_mapping(t_address,t_uint256))"
      },
      {
        "astId": 226,
        "contract": "contracts/FractionalizedNFT.sol:FractionalizedNFT",
        "label": "_totalSupply",
        "offset": 0,
        "slot": "2",
        "type": "t_uint256"
      },
      {
        "astId": 228,
        "contract": "contracts/FractionalizedNFT.sol:FractionalizedNFT",
        "label": "_name",
        "offset": 0,
        "slot": "3",
        "type": "t_string_storage"
      },
      {
        "astId": 230,
        "contract": "contracts/FractionalizedNFT.sol:FractionalizedNFT",
        "label": "_symbol",
        "offset": 0,
        "slot": "4",
        "type": "t_string_storage"
      },
      {
        "astId": 7,
        "contract": "contracts/FractionalizedNFT.sol:FractionalizedNFT",
        "label": "_owner",
        "offset": 0,
        "slot": "5",
        "type": "t_address"
      },
      {
        "astId": 3598,
        "contract": "contracts/FractionalizedNFT.sol:FractionalizedNFT",
        "label": "_nameFallback",
        "offset": 0,
        "slot": "6",
        "type": "t_string_storage"
      },
      {
        "astId": 3600,
        "contract": "contracts/FractionalizedNFT.sol:FractionalizedNFT",
        "label": "_versionFallback",
        "offset": 0,
        "slot": "7",
        "type": "t_string_storage"
      },
      {
        "astId": 890,
        "contract": "contracts/FractionalizedNFT.sol:FractionalizedNFT",
        "label": "_nonces",
        "offset": 0,
        "slot": "8",
        "type": "t_mapping(t_address,t_struct(Counter)2576_storage)"
      },
      {
        "astId": 898,
        "contract": "contracts/FractionalizedNFT.sol:FractionalizedNFT",
        "label": "_PERMIT_TYPEHASH_DEPRECATED_SLOT",
        "offset": 0,
        "slot": "9",
        "type": "t_bytes32"
      },
      {
        "astId": 5123,
        "contract": "contracts/FractionalizedNFT.sol:FractionalizedNFT",
        "label": "collection",
        "offset": 0,
        "slot": "10",
        "type": "t_contract(IERC721)2146"
      },
      {
        "astId": 5125,
        "contract": "contracts/FractionalizedNFT.sol:FractionalizedNFT",
        "label": "tokenId",
        "offset": 0,
        "slot": "11",
        "type": "t_uint256"
      },
      {
        "astId": 5128,
        "contract": "contracts/FractionalizedNFT.sol:FractionalizedNFT",
        "label": "initialized",
        "offset": 0,
        "slot": "12",
        "type": "t_bool"
      },
      {
        "astId": 5131,
        "contract": "contracts/FractionalizedNFT.sol:FractionalizedNFT",
        "label": "forSale",
        "offset": 1,
        "slot": "12",
        "type": "t_bool"
      },
      {
        "astId": 5133,
        "contract": "contracts/FractionalizedNFT.sol:FractionalizedNFT",
        "label": "salePrice",
        "offset": 0,
        "slot": "13",
        "type": "t_uint256"
      },
      {
        "astId": 5136,
        "contract": "contracts/FractionalizedNFT.sol:FractionalizedNFT",
        "label": "canRedeem",
        "offset": 0,
        "slot": "14",
        "type": "t_bool"
      }
    ],
    "types": {
      "t_address": {
        "encoding": "inplace",
        "label": "address",
        "numberOfBytes": "20"
      },
      "t_bool": {
        "encoding": "inplace",
        "label": "bool",
        "numberOfBytes": "1"
      },
      "t_bytes32": {
        "encoding": "inplace",
        "label": "bytes32",
        "numberOfBytes": "32"
      },
      "t_contract(IERC721)2146": {
        "encoding": "inplace",
        "label": "contract IERC721",
        "numberOfBytes": "20"
      },
      "t_mapping(t_address,t_mapping(t_address,t_uint256))": {
        "encoding": "mapping",
        "key": "t_address",
        "label": "mapping(address => mapping(address => uint256))",
        "numberOfBytes": "32",
        "value": "t_mapping(t_address,t_uint256)"
      },
      "t_mapping(t_address,t_struct(Counter)2576_storage)": {
        "encoding": "mapping",
        "key": "t_address",
        "label": "mapping(address => struct Counters.Counter)",
        "numberOfBytes": "32",
        "value": "t_struct(Counter)2576_storage"
      },
      "t_mapping(t_address,t_uint256)": {
        "encoding": "mapping",
        "key": "t_address",
        "label": "mapping(address => uint256)",
        "numberOfBytes": "32",
        "value": "t_uint256"
      },
      "t_string_storage": {
        "encoding": "bytes",
        "label": "string",
        "numberOfBytes": "32"
      },
      "t_struct(Counter)2576_storage": {
        "encoding": "inplace",
        "label": "struct Counters.Counter",
        "members": [
          {
            "astId": 2575,
            "contract": "contracts/FractionalizedNFT.sol:FractionalizedNFT",
            "label": "_value",
            "offset": 0,
            "slot": "0",
            "type": "t_uint256"
          }
        ],
        "numberOfBytes": "32"
      },
      "t_uint256": {
        "encoding": "inplace",
        "label": "uint256",
        "numberOfBytes": "32"
      }
    }
  }
}