{
  "address": "0x15F2ea83eB97ede71d84Bd04fFF29444f6b7cd52",
  "abi": [
    {
      "inputs": [],
      "name": "NftMarketplace_AlreadyListed",
      "type": "error"
    },
    {
      "inputs": [],
      "name": "NftMarketplace_InsufficientEthTransfer",
      "type": "error"
    },
    {
      "inputs": [],
      "name": "NftMarketplace_NotApprovedForMarketPlace",
      "type": "error"
    },
    {
      "inputs": [],
      "name": "NftMarketplace_NotListed",
      "type": "error"
    },
    {
      "inputs": [],
      "name": "NftMarketplace_NotOwner",
      "type": "error"
    },
    {
      "inputs": [],
      "name": "NftMarketplace_PriceNotValid",
      "type": "error"
    },
    {
      "inputs": [],
      "name": "NftMarketplace_TransferFailed",
      "type": "error"
    },
    {
      "anonymous": false,
      "inputs": [
        {
          "indexed": true,
          "internalType": "address",
          "name": "buyer",
          "type": "address"
        },
        {
          "indexed": true,
          "internalType": "address",
          "name": "nftAddress",
          "type": "address"
        },
        {
          "indexed": true,
          "internalType": "uint256",
          "name": "tokenId",
          "type": "uint256"
        },
        {
          "indexed": false,
          "internalType": "uint256",
          "name": "price",
          "type": "uint256"
        }
      ],
      "name": "ItemBought",
      "type": "event"
    },
    {
      "anonymous": false,
      "inputs": [
        {
          "indexed": true,
          "internalType": "address",
          "name": "seller",
          "type": "address"
        },
        {
          "indexed": true,
          "internalType": "address",
          "name": "nftAddress",
          "type": "address"
        },
        {
          "indexed": true,
          "internalType": "uint256",
          "name": "tokenId",
          "type": "uint256"
        }
      ],
      "name": "ItemCancelled",
      "type": "event"
    },
    {
      "anonymous": false,
      "inputs": [
        {
          "indexed": true,
          "internalType": "address",
          "name": "seller",
          "type": "address"
        },
        {
          "indexed": true,
          "internalType": "address",
          "name": "nftAddress",
          "type": "address"
        },
        {
          "indexed": true,
          "internalType": "uint256",
          "name": "tokenId",
          "type": "uint256"
        },
        {
          "indexed": false,
          "internalType": "uint256",
          "name": "price",
          "type": "uint256"
        }
      ],
      "name": "ItemListed",
      "type": "event"
    },
    {
      "inputs": [
        {
          "internalType": "address",
          "name": "nftAddress",
          "type": "address"
        },
        {
          "internalType": "uint256",
          "name": "tokenId",
          "type": "uint256"
        }
      ],
      "name": "buyItem",
      "outputs": [],
      "stateMutability": "payable",
      "type": "function"
    },
    {
      "inputs": [
        {
          "internalType": "address",
          "name": "nftAddress",
          "type": "address"
        },
        {
          "internalType": "uint256",
          "name": "tokenId",
          "type": "uint256"
        }
      ],
      "name": "cancelListing",
      "outputs": [],
      "stateMutability": "nonpayable",
      "type": "function"
    },
    {
      "inputs": [
        {
          "internalType": "address",
          "name": "nftAddress",
          "type": "address"
        },
        {
          "internalType": "uint256",
          "name": "tokenId",
          "type": "uint256"
        }
      ],
      "name": "getListing",
      "outputs": [
        {
          "components": [
            {
              "internalType": "address",
              "name": "seller",
              "type": "address"
            },
            {
              "internalType": "uint256",
              "name": "price",
              "type": "uint256"
            }
          ],
          "internalType": "struct NftMarketPlace.Listing",
          "name": "",
          "type": "tuple"
        }
      ],
      "stateMutability": "view",
      "type": "function"
    },
    {
      "inputs": [
        {
          "internalType": "address",
          "name": "owner",
          "type": "address"
        }
      ],
      "name": "getProceeds",
      "outputs": [
        {
          "internalType": "uint256",
          "name": "",
          "type": "uint256"
        }
      ],
      "stateMutability": "view",
      "type": "function"
    },
    {
      "inputs": [
        {
          "internalType": "address",
          "name": "nftAddress",
          "type": "address"
        },
        {
          "internalType": "uint256",
          "name": "tokenId",
          "type": "uint256"
        },
        {
          "internalType": "uint256",
          "name": "price",
          "type": "uint256"
        }
      ],
      "name": "listItem",
      "outputs": [],
      "stateMutability": "nonpayable",
      "type": "function"
    },
    {
      "inputs": [
        {
          "internalType": "address",
          "name": "nftAddress",
          "type": "address"
        },
        {
          "internalType": "uint256",
          "name": "tokenId",
          "type": "uint256"
        },
        {
          "internalType": "uint256",
          "name": "price",
          "type": "uint256"
        }
      ],
      "name": "updateListing",
      "outputs": [],
      "stateMutability": "nonpayable",
      "type": "function"
    },
    {
      "inputs": [],
      "name": "withdrawProceeds",
      "outputs": [],
      "stateMutability": "nonpayable",
      "type": "function"
    }
  ],
  "transactionHash": "0xbbec5fa3df458f83c3a5766a876862cb6b043bda0a1a732da5cd93224fdf762d",
  "args": [],
  "numDeployments": 1,
  "solcInputHash": "de05512e8a8801f2c6d753bb1650f441",
  "bytecode": "0x608060405234801561001057600080fd5b506001600081905550611643806100286000396000f3fe6080604052600436106100705760003560e01c80639038e6931161004e5780639038e693146101185780639f37092a1461012f578063b2ddee061461014b578063f772adf11461017457610070565b806330cfeda91461007557806388700d1c146100b257806389bfd38f146100ef575b600080fd5b34801561008157600080fd5b5061009c600480360381019061009791906112d7565b61019d565b6040516100a9919061131d565b60405180910390f35b3480156100be57600080fd5b506100d960048036038101906100d49190611364565b6101e6565b6040516100e691906113f1565b60405180910390f35b3480156100fb57600080fd5b506101166004803603810190610111919061140c565b6102b1565b005b34801561012457600080fd5b5061012d6106f8565b005b61014960048036038101906101449190611364565b610862565b005b34801561015757600080fd5b50610172600480360381019061016d9190611364565b610c35565b005b34801561018057600080fd5b5061019b6004803603810190610196919061140c565b610f02565b005b6000600260008373ffffffffffffffffffffffffffffffffffffffff1673ffffffffffffffffffffffffffffffffffffffff168152602001908152602001600020549050919050565b6101ee611244565b600160008473ffffffffffffffffffffffffffffffffffffffff1673ffffffffffffffffffffffffffffffffffffffff16815260200190815260200160002060008381526020019081526020016000206040518060400160405290816000820160009054906101000a900473ffffffffffffffffffffffffffffffffffffffff1673ffffffffffffffffffffffffffffffffffffffff1673ffffffffffffffffffffffffffffffffffffffff168152602001600182015481525050905092915050565b8282336000600160008573ffffffffffffffffffffffffffffffffffffffff1673ffffffffffffffffffffffffffffffffffffffff16815260200190815260200160002060008481526020019081526020016000206040518060400160405290816000820160009054906101000a900473ffffffffffffffffffffffffffffffffffffffff1673ffffffffffffffffffffffffffffffffffffffff1673ffffffffffffffffffffffffffffffffffffffff16815260200160018201548152505090506000816020015111156103b2576040517fe73d9a9c00000000000000000000000000000000000000000000000000000000815260040160405180910390fd5b86863360008390508173ffffffffffffffffffffffffffffffffffffffff168173ffffffffffffffffffffffffffffffffffffffff16636352211e856040518263ffffffff1660e01b815260040161040a919061131d565b602060405180830381865afa158015610427573d6000803e3d6000fd5b505050506040513d601f19601f8201168201806040525081019061044b9190611474565b73ffffffffffffffffffffffffffffffffffffffff1614610498576040517f6008b18300000000000000000000000000000000000000000000000000000000815260040160405180910390fd5b600089116104d2576040517f8b58f36000000000000000000000000000000000000000000000000000000000815260040160405180910390fd5b60008b90503073ffffffffffffffffffffffffffffffffffffffff168173ffffffffffffffffffffffffffffffffffffffff1663081812fc8d6040518263ffffffff1660e01b8152600401610527919061131d565b602060405180830381865afa158015610544573d6000803e3d6000fd5b505050506040513d601f19601f820116820180604052508101906105689190611474565b73ffffffffffffffffffffffffffffffffffffffff16146105b5576040517f8ed0e36700000000000000000000000000000000000000000000000000000000815260040160405180910390fd5b60405180604001604052803373ffffffffffffffffffffffffffffffffffffffff1681526020018b815250600160008e73ffffffffffffffffffffffffffffffffffffffff1673ffffffffffffffffffffffffffffffffffffffff16815260200190815260200160002060008d815260200190815260200160002060008201518160000160006101000a81548173ffffffffffffffffffffffffffffffffffffffff021916908373ffffffffffffffffffffffffffffffffffffffff160217905550602082015181600101559050508a8c73ffffffffffffffffffffffffffffffffffffffff163373ffffffffffffffffffffffffffffffffffffffff167fd547e933094f12a9159076970143ebe73234e64480317844b0dcb36117116de48d6040516106e2919061131d565b60405180910390a4505050505050505050505050565b6000600260003373ffffffffffffffffffffffffffffffffffffffff1673ffffffffffffffffffffffffffffffffffffffff16815260200190815260200160002054905060008111610776576040517fdcb2b45800000000000000000000000000000000000000000000000000000000815260040160405180910390fd5b6000600260003373ffffffffffffffffffffffffffffffffffffffff1673ffffffffffffffffffffffffffffffffffffffff1681526020019081526020016000208190555060003373ffffffffffffffffffffffffffffffffffffffff16826040516107e1906114d2565b60006040518083038185875af1925050503d806000811461081e576040519150601f19603f3d011682016040523d82523d6000602084013e610823565b606091505b505090508061085e576040517fc7be981f00000000000000000000000000000000000000000000000000000000815260040160405180910390fd5b5050565b61086a6111eb565b81816000600160008473ffffffffffffffffffffffffffffffffffffffff1673ffffffffffffffffffffffffffffffffffffffff16815260200190815260200160002060008381526020019081526020016000206040518060400160405290816000820160009054906101000a900473ffffffffffffffffffffffffffffffffffffffff1673ffffffffffffffffffffffffffffffffffffffff1673ffffffffffffffffffffffffffffffffffffffff16815260200160018201548152505090506000816020015111610969576040517f3f10d16f00000000000000000000000000000000000000000000000000000000815260040160405180910390fd5b6000600160008773ffffffffffffffffffffffffffffffffffffffff1673ffffffffffffffffffffffffffffffffffffffff16815260200190815260200160002060008681526020019081526020016000206040518060400160405290816000820160009054906101000a900473ffffffffffffffffffffffffffffffffffffffff1673ffffffffffffffffffffffffffffffffffffffff1673ffffffffffffffffffffffffffffffffffffffff16815260200160018201548152505090508060200151341015610a66576040517fdcb2b45800000000000000000000000000000000000000000000000000000000815260040160405180910390fd5b3460026000836000015173ffffffffffffffffffffffffffffffffffffffff1673ffffffffffffffffffffffffffffffffffffffff1681526020019081526020016000206000828254610ab99190611516565b92505081905550600160008773ffffffffffffffffffffffffffffffffffffffff1673ffffffffffffffffffffffffffffffffffffffff1681526020019081526020016000206000868152602001908152602001600020600080820160006101000a81549073ffffffffffffffffffffffffffffffffffffffff02191690556001820160009055505060008690508073ffffffffffffffffffffffffffffffffffffffff166342842e0e836000015133896040518463ffffffff1660e01b8152600401610b8893929190611559565b600060405180830381600087803b158015610ba257600080fd5b505af1158015610bb6573d6000803e3d6000fd5b50505050858773ffffffffffffffffffffffffffffffffffffffff163373ffffffffffffffffffffffffffffffffffffffff167f263223b1dd81e51054a4e6f791d45a4a1ddb4aadcd93a2dfd892615c3fdac1878560200151604051610c1c919061131d565b60405180910390a45050505050610c3161123a565b5050565b81816000600160008473ffffffffffffffffffffffffffffffffffffffff1673ffffffffffffffffffffffffffffffffffffffff16815260200190815260200160002060008381526020019081526020016000206040518060400160405290816000820160009054906101000a900473ffffffffffffffffffffffffffffffffffffffff1673ffffffffffffffffffffffffffffffffffffffff1673ffffffffffffffffffffffffffffffffffffffff16815260200160018201548152505090506000816020015111610d34576040517f3f10d16f00000000000000000000000000000000000000000000000000000000815260040160405180910390fd5b84843360008390508173ffffffffffffffffffffffffffffffffffffffff168173ffffffffffffffffffffffffffffffffffffffff16636352211e856040518263ffffffff1660e01b8152600401610d8c919061131d565b602060405180830381865afa158015610da9573d6000803e3d6000fd5b505050506040513d601f19601f82011682018060405250810190610dcd9190611474565b73ffffffffffffffffffffffffffffffffffffffff1614610e1a576040517f6008b18300000000000000000000000000000000000000000000000000000000815260040160405180910390fd5b600160008a73ffffffffffffffffffffffffffffffffffffffff1673ffffffffffffffffffffffffffffffffffffffff1681526020019081526020016000206000898152602001908152602001600020600080820160006101000a81549073ffffffffffffffffffffffffffffffffffffffff021916905560018201600090555050878973ffffffffffffffffffffffffffffffffffffffff163373ffffffffffffffffffffffffffffffffffffffff167f6e08c1d889d309942730e4afa7963d0c5294a34a479f2c8cf39a953f287dcdee60405160405180910390a4505050505050505050565b82826000600160008473ffffffffffffffffffffffffffffffffffffffff1673ffffffffffffffffffffffffffffffffffffffff16815260200190815260200160002060008381526020019081526020016000206040518060400160405290816000820160009054906101000a900473ffffffffffffffffffffffffffffffffffffffff1673ffffffffffffffffffffffffffffffffffffffff1673ffffffffffffffffffffffffffffffffffffffff16815260200160018201548152505090506000816020015111611001576040517f3f10d16f00000000000000000000000000000000000000000000000000000000815260040160405180910390fd5b85853360008390508173ffffffffffffffffffffffffffffffffffffffff168173ffffffffffffffffffffffffffffffffffffffff16636352211e856040518263ffffffff1660e01b8152600401611059919061131d565b602060405180830381865afa158015611076573d6000803e3d6000fd5b505050506040513d601f19601f8201168201806040525081019061109a9190611474565b73ffffffffffffffffffffffffffffffffffffffff16146110e7576040517f6008b18300000000000000000000000000000000000000000000000000000000815260040160405180910390fd5b60008811611121576040517f8b58f36000000000000000000000000000000000000000000000000000000000815260040160405180910390fd5b87600160008c73ffffffffffffffffffffffffffffffffffffffff1673ffffffffffffffffffffffffffffffffffffffff16815260200190815260200160002060008b815260200190815260200160002060010181905550888a73ffffffffffffffffffffffffffffffffffffffff163373ffffffffffffffffffffffffffffffffffffffff167fd547e933094f12a9159076970143ebe73234e64480317844b0dcb36117116de48b6040516111d7919061131d565b60405180910390a450505050505050505050565b600260005403611230576040517f08c379a0000000000000000000000000000000000000000000000000000000008152600401611227906115ed565b60405180910390fd5b6002600081905550565b6001600081905550565b6040518060400160405280600073ffffffffffffffffffffffffffffffffffffffff168152602001600081525090565b600080fd5b600073ffffffffffffffffffffffffffffffffffffffff82169050919050565b60006112a482611279565b9050919050565b6112b481611299565b81146112bf57600080fd5b50565b6000813590506112d1816112ab565b92915050565b6000602082840312156112ed576112ec611274565b5b60006112fb848285016112c2565b91505092915050565b6000819050919050565b61131781611304565b82525050565b6000602082019050611332600083018461130e565b92915050565b61134181611304565b811461134c57600080fd5b50565b60008135905061135e81611338565b92915050565b6000806040838503121561137b5761137a611274565b5b6000611389858286016112c2565b925050602061139a8582860161134f565b9150509250929050565b6113ad81611299565b82525050565b6113bc81611304565b82525050565b6040820160008201516113d860008501826113a4565b5060208201516113eb60208501826113b3565b50505050565b600060408201905061140660008301846113c2565b92915050565b60008060006060848603121561142557611424611274565b5b6000611433868287016112c2565b93505060206114448682870161134f565b92505060406114558682870161134f565b9150509250925092565b60008151905061146e816112ab565b92915050565b60006020828403121561148a57611489611274565b5b60006114988482850161145f565b91505092915050565b600081905092915050565b50565b60006114bc6000836114a1565b91506114c7826114ac565b600082019050919050565b60006114dd826114af565b9150819050919050565b7f4e487b7100000000000000000000000000000000000000000000000000000000600052601160045260246000fd5b600061152182611304565b915061152c83611304565b9250828201905080821115611544576115436114e7565b5b92915050565b61155381611299565b82525050565b600060608201905061156e600083018661154a565b61157b602083018561154a565b611588604083018461130e565b949350505050565b600082825260208201905092915050565b7f5265656e7472616e637947756172643a207265656e7472616e742063616c6c00600082015250565b60006115d7601f83611590565b91506115e2826115a1565b602082019050919050565b60006020820190508181036000830152611606816115ca565b905091905056fea26469706673582212200cdeb6777da56439bb96066d043ccc8b8b9cdbbed464bd760711ac6719eab2e664736f6c63430008140033",
  "devdoc": {
    "kind": "dev",
    "methods": {},
    "version": 1
  },
  "userdoc": {
    "kind": "user",
    "methods": {},
    "version": 1
  },
  "storageLayout": {
    "storage": [
      {
        "astId": 148,
        "contract": "contracts/NftMarketplace.sol:NftMarketPlace",
        "label": "_status",
        "offset": 0,
        "slot": "0",
        "type": "t_uint256"
      },
      {
        "astId": 5857,
        "contract": "contracts/NftMarketplace.sol:NftMarketPlace",
        "label": "s_listings",
        "offset": 0,
        "slot": "1",
        "type": "t_mapping(t_address,t_mapping(t_uint256,t_struct(Listing)5850_storage))"
      },
      {
        "astId": 5861,
        "contract": "contracts/NftMarketplace.sol:NftMarketPlace",
        "label": "s_proceeds",
        "offset": 0,
        "slot": "2",
        "type": "t_mapping(t_address,t_uint256)"
      }
    ],
    "types": {
      "t_address": {
        "encoding": "inplace",
        "label": "address",
        "numberOfBytes": "20"
      },
      "t_mapping(t_address,t_mapping(t_uint256,t_struct(Listing)5850_storage))": {
        "encoding": "mapping",
        "key": "t_address",
        "label": "mapping(address => mapping(uint256 => struct NftMarketPlace.Listing))",
        "numberOfBytes": "32",
        "value": "t_mapping(t_uint256,t_struct(Listing)5850_storage)"
      },
      "t_mapping(t_address,t_uint256)": {
        "encoding": "mapping",
        "key": "t_address",
        "label": "mapping(address => uint256)",
        "numberOfBytes": "32",
        "value": "t_uint256"
      },
      "t_mapping(t_uint256,t_struct(Listing)5850_storage)": {
        "encoding": "mapping",
        "key": "t_uint256",
        "label": "mapping(uint256 => struct NftMarketPlace.Listing)",
        "numberOfBytes": "32",
        "value": "t_struct(Listing)5850_storage"
      },
      "t_struct(Listing)5850_storage": {
        "encoding": "inplace",
        "label": "struct NftMarketPlace.Listing",
        "members": [
          {
            "astId": 5847,
            "contract": "contracts/NftMarketplace.sol:NftMarketPlace",
            "label": "seller",
            "offset": 0,
            "slot": "0",
            "type": "t_address"
          },
          {
            "astId": 5849,
            "contract": "contracts/NftMarketplace.sol:NftMarketPlace",
            "label": "price",
            "offset": 0,
            "slot": "1",
            "type": "t_uint256"
          }
        ],
        "numberOfBytes": "64"
      },
      "t_uint256": {
        "encoding": "inplace",
        "label": "uint256",
        "numberOfBytes": "32"
      }
    }
  }
}